:020000041000EA
:10000000002008205D0100101B0100101D010010E0
:100010001101001011010010110100101101001058
:100020001901001019010010190100101F01001022
:10003000110100101901001021010010230100100E
:100040001101001011010010110100101101001028
:100050001101001011010010110100101101001018
:100060001101001011010010110100101101001008
:1000700011010010110100101101001011010010F8
:1000800011010010110100101101001011010010E8
:1000900011010010110100101101001011010010D8
:1000A00011010010110100101101001011010010C8
:1000B00011010010110100101101001011010010B8
:1000C00011010010110100101101001011010010A8
:1000D0001101001011010010110100101101001098
:1000E0001101001011010010110100101101001088
:1000F0001101001011010010110100101101001078
:100100001101001011010010110100101101001067
:10011000EFF30580103800BE00BE00BE00BE00BE7A
:1001200000BE00BEF2EB8871709D0010949D00101F
:10013000A001001090A31AE7D3DEFFFF42012110B7
:10014000FF01000008AE0000793512AB4FF000004F
:100150001E49086006C881F3088810474FF05040D8
:10016000006810B14FF00000F2E70DA40ECC00299A
:1001700002D000F012F8F9E71549164A002000E015
:1001800001C19142FCD11449884714498847144958
:10019000884700BEFDE701C901C29A42FBD3704700
:1001A000949D001010010020BC12002040AF0010F0
:1001B000000008200000082040AF001000100820B8
:1001C00000100820000000007047000008ED00E06B
:1001D000BC120020EC220420BD680010C9050010EC
:1001E000B5680010F8B500BF10B5054C237833B9D9
:1001F000044B13B1044800E000BF0123237010BD7D
:1002000088140020000000001497001008B5034B6C
:100210001BB10349034800E000BF08BD0000000017
:100220008C1400201497001030B5044683B00948A0
:10023000094D06F0A7FC01A94FF0FF32206802F03B
:100240000BFC2846BDF80420BDF8061006F018FD8A
:10025000F1E700BF18970010549700100523F0B580
:10026000054687B01D4801271D4E8DF80F3006F05A
:1002700089FCFA240123E8681A461946009402F022
:10028000BFF8C307F6D50024012357210DF10F0253
:100290003046009701F004FB04235721304604AA9E
:1002A000009401F005FBC0B2042813D1BDF810E0A2
:1002B000BDF812C09EFA9EFE9CFA9CFC23464FF0AD
:1002C000FF32286805A9ADF816E0ADF814C002F0B9
:1002D000DDFACEE7034806F055FCCAE78C9700101C
:1002E00064120020C89700102DE9F0414FF05047EC
:1002F0008046144E84B07C6814F040041DD1012562
:1003000057212B460DF10E02304600958DF80E4018
:100310008DF80F4001F0C4FA2B4657210DF10F0262
:100320000094304601F0C4FA2946D8F80C0002F0D7
:10033000C1F87C6814F04004E1D0322004F0A2F847
:10034000D9E700BF6412002070B50022042101200B
:1003500002F05CFA03460F4E0022042101203360B4
:1003600002F054FA03460C4D0022042101202B60B8
:1003700002F04CFA094C206002F034F8084B094AAC
:1003800036682D682168C3E9006599601060D860FF
:1003900070BD00BFAC140020C0140020A4140020C5
:1003A000B0140020A814002030B540F6B83085B055
:1003B00001F0A6F80123002444F2060557210DF1AF
:1003C0000B02009376488DF80B408DF80C4001F03D
:1003D00067FA012303AA57210094714801F068FAD3
:1003E0002146704806F04CFC02235721009403AAD2
:1003F0006B48ADF80C5001F053FA04466420E4B2A7
:1004000001F07EF8022C00F08C804FF050435C68C5
:1004100014F0400400F09280002540F206340223DC
:10042000572103AA5E480095ADF80C4001F038FA58
:1004300004466420E4B201F063F8022C00F0AC80C2
:10044000002540F207740223572103AA544800955F
:10045000ADF80C4001F024FA04466420E4B201F047
:100460004FF8022C00F0948000254FF60974022307
:10047000572103AA4A480095ADF80C4001F010FA44
:1004800004466420E4B201F03BF8022C7CD0002446
:100490000223572103AA00944148ADF80C3001F023
:1004A000FFF904466420E4B201F02AF8022C67D078
:1004B000002503240223572103AA39480095ADF8EB
:1004C0000C4001F0EDF904466420E4B201F018F8A4
:1004D000022C51D000250A240223572103AA3048B8
:1004E0000095ADF80C4001F0DBF904466420E4B25D
:1004F00001F006F8022C3BD0002542F20104022351
:10050000572103AA26480095ADF80C4001F0C8F920
:1005100004466420E4B200F0F3FF022C22D005B0C0
:1005200030BD642000F0ECFF1F4806F02BFB4FF0BD
:1005300050435C6814F040047FF46EAF01230DF16A
:100540000B020093572116488DF80B408DF80C4094
:1005500001F0A6F90123572103AA0094104801F0E5
:10056000A7F959E7114805B0BDE8304006F00ABBCD
:100570000F4806F007FBBFE70E4806F003FBA9E7AC
:100580000D4806F0FFFA93E70C4806F0FBFA7EE709
:100590000B4806F0F7FA67E70A4806F0F3FA4FE768
:1005A00064120020EC97001008980010F4980010D6
:1005B000C8980010A0980010889800106C9800103F
:1005C000509800103498001030B583B006F09AFAB5
:1005D0002449254801F03EF90321052000F054F894
:1005E0000321042000F050F800220121042000F033
:1005F00069F800220121052000F064F8062000F0CF
:100600007BF800220121062000F05CF8002406237C
:1006100044EC44300225FFF7C7FEFFF795FE009536
:1006200003254FF40072114B11490194114803F056
:1006300045FC009504254FF480620C4B0E49019453
:100640000E4803F03BFC4FF48062084B0C490194C8
:1006500000950C4803F032FC03F0AEFD204603B0D9
:1006600030BD00BF801A060064120020B0140020C4
:1006700024990010E902001030990010290200109E
:10068000389900105D02001010B44FF480740C4BC8
:1006900053F8202003EB8003C00082F0400200F1F9
:1006A000804003F5805C02F0C00200F5203003F5C5
:1006B0004053CCF8002041601C605DF8044B70474B
:1006C00004800340002915BF0C2104214FF0080CC1
:1006D0004FF0000C002A08BF6146064B53F820205B
:1006E00003EB80034A4003F5805302F00C021A60CA
:1006F000704700BF0480034030B4002343EC440043
:1007000043EC400005254FF480740B4BC20053F8B6
:10071000201003EB800081F0400102F1804303F5DB
:10072000203301F0C00200F5805100F540500A600E
:100730005D60046030BC7047048003400FB400B5B6
:1007400083B0049C074806F01DFA3CB105A9204679
:10075000019106F095F8044806F014FA012006F01D
:10076000A7F800BF5099001060990010EFF31080B7
:1007700072B6064BD3E8CF1F01220029FAD1C3E895
:10078000412F0029F6D1BFF35F8F70477316002009
:100790000023034AC2E88F3F80F31088704700BFF0
:1007A0007316002070B5EFF3108572B6134CD4E8C1
:1007B000CFCF0126BCF1000FF9D1C4E84C6FBCF1DA
:1007C000000FF4D1BFF35F8F4FF0010C4FEAD10E51
:1007D00001F007030CFA03F310F80EC01CEA03063D
:1007E00008D14CEA030300F80E30C4E88F6F85F39C
:1007F000108870BD1046FFF7A1FF00BF73160020E0
:10080000F8B5EFF3108572B6234CD4E8CF7F0126FC
:10081000002FFAD1C4E8476F002FF6D1BFF35F8FE6
:100820009A4227D80126D70810F807E002F0070CF3
:1008300006FA0CFC1EEA0C0F00EBD2070DD125E0E6
:100840004FEAD20E10F80EE002F0070C06FA0CFC8C
:100850001EEA0C0F00EBD20718D001329342EFD200
:100860004FF0FF300023C4E88F3F85F31088984293
:1008700007DBF8BD0023C4E88F3F85F310884FF0F5
:10088000FF300029F5D00698FFF758FF4EEA0C0C10
:10089000104687F800C0E5E773160020044A107878
:1008A000431CDBB2172B88BF10231370704700BFA7
:1008B000001200200146024A0248FFF773BF00BF42
:1008C00064990010841A002010B5054C82B00146CE
:1008D0001F23182200940348FFF792FF02B010BDB7
:1008E00084990010841A00204FF0E022936843F0AE
:1008F00000539360704700BF0021044B03F12002B6
:10090000C3E88F1F01339342FAD170476816002065
:100910004FF0E0234FF08032C3F80024C3F80424E2
:10092000C3F80824C3F80C24C3F81024C3F8142413
:10093000C3F81824C3F81C24C3F82024C3F82424C3
:10094000C3F82824C3F82C24C3F8302462B67047B7
:10095000012300F01F029340400941B1800000F1E3
:10096000604000F56140C0F8803103607047024A82
:10097000203042F82030704700E100E00123064AB1
:10098000410952F8212000F01F0003FA00F0104244
:1009900014BF18460020704700E100E0012243091F
:1009A000044900F01F0002FA00F0403341F8230030
:1009B000704700BF00E100E0054A10309268054B27
:1009C00052F82000C01A2F288CBF00200120704749
:1009D00000ED00E004120020F8B50D46EFF310879B
:1009E00072B6124ED6E8CF2F0123002AFAD1C6E8FC
:1009F000423F002AF6D1BFF35F8F0D4B00F1100488
:100A00009B680C4A53F82430934203D0994201D09A
:100A100004F020FA064B9B6843F82450BFF35F8F25
:100A20000023C6E88F3F87F31088F8BD71160020B9
:100A300000ED00E0110100102DE9F04F80468B46DB
:100A4000174683B0EFF3108372B6DFF8D0A100939E
:100A5000DAE8CF1F01230029FAD1CAE8413F002973
:100A6000F6D1BFF35F8F664E96F90050002DC0F2AD
:100A7000A080644C05EB450304EB8300817908F109
:100A80001008317060499B008968994651F828E048
:100A90000646AEEB04012F294FEA450231D95B4BE4
:100AA0009E4540F0A2805A4B09F10209A144043B43
:100AB000A3EB0903C3F34A036FEAC3434FF4214195
:100AC0006FEAD343154424F8251004EB85056B80A9
:100AD0004BF60153AB80FF2346F0010EEF71C5F8D2
:100AE00008B0AB71484B9B6843F828E0BFF35F8FB9
:100AF0000023CAE88F3F009B83F3108803B0BDE852
:100B0000F08F2EF0010191F807C0BC452BD84FF4AF
:100B10002146E6523E4B09F102062644043B09F108
:100B200004099B1BA1440E1FC771A6EB0906394F90
:100B3000C6F34A063E438680C3F34A03364E3B4320
:100B400043804AF6AA250B461B1B5B415D432D0DD6
:100B5000C0F808B0857140F0010E0E60C2E7C079A0
:100B6000B8422BD9614691F9063003EB430004EB00
:100B70008000002B8446F2DA4BF6015001930B1DE6
:100B8000043EF61AC6F34A066FEAC6466FEAD64630
:100B900002EB050CDFF88090019B8D7104EB8C0556
:100BA0008E8044F82C90A880AB71EF71C5F808B026
:100BB00098E704F04FF996F900505AE788880193B6
:100BC000400501F1040315D44FEA605C6FF00700A3
:100BD0000CF1020CA0EB090003EB4C0C001B604471
:100BE000C0F34A0040F46040CAE7019204F032F9D1
:100BF000019A58E700F5FF1000F5FF501F30E3E7BA
:100C0000E72204200412002000ED00E01101001092
:100C10003412002000E0FFFF0148804771160020D9
:100C20004FF0FF0C20F0030303F1604303F564432E
:100C300000F003001A68C0000CFA00FC22EA0C0263
:100C400081400A431A607047F0B5EFF30585EDB2B5
:100C5000EFF3108C72B62649D1E8CF2F0123002A7A
:100C6000FAD1C1E8423F002AF6D1BFF35F8F214E8F
:100C700040F0010EB4684AF6AA2354F825701E4AC3
:100C80000446A41A644163431B0D77455BB21BD035
:100C900092F906409C421CD092F912409C4223D00B
:100CA00092F91E409C4221D092F92A409C4208BFF2
:100CB00003240FD0114A0024157813708571C1E800
:100CC0008F4F8CF31088F0BDB2680D4C42F8254070
:100CD000F0E7002404EB440402EB8402FF24947147
:100CE0004BF601549480E5E70124F3E70224F1E791
:100CF0007116002000ED00E004120020E72204201D
:100D00001101001010B5074C82B0014605230022E6
:100D100000940548FFF774FD0028A8BFC0F1330018
:100D200002B010BDA0990010EB220420014B194421
:100D300001607047681600202DE9F041154D164EF0
:100D4000B54224D22C4623684FF0FF374FF00008FD
:100D50008BB1FFF7A3FD01462846FFF7E7FF676069
:100D600084F80880BFF35F8F0C34B4420FD223683D
:100D70002546002BEDD1FFF791FD01462846FFF7F0
:100D8000D5FF6760BFF35F8F0834B442EFD3BDE88F
:100D9000F08100BFAC120020BC12002010B5044648
:100DA000FFF77CFD01462046FFF7C0FF4FF0FF3301
:100DB0006360BFF35F8F10BD10B504460120FFF7DD
:100DC00083FD034B18442060BFF35F8F10BD00BF4D
:100DD00068160020024B19440160BFF35F8F704713
:100DE00068160020000000002DE9F04F2DED028B69
:100DF00085B0EFF30583DBB2103B9A0818BF0122E0
:100E00004FF0010103F00300AD4B00EB82020CBF79
:100E1000AC4FAD4F53F8226001FA00F207F5415391
:100E20009FEDA58BB046019000925A6035E0B8F86E
:100E300004301B0440F1928098F80630002B40F0FB
:100E4000DF80B8F90820002AC0F22581D8F81430D4
:100E500002EB420203EBC202D2E90245B5F1FF3FC9
:100E600008BFB4F1FF3F0DD0019B07EB8301BB6AC4
:100E70000A69D21AE31A934203D33B6A009A1342D7
:100E800000D10C61384600F0CDFB201A65EB01055E
:100E9000012875F1000380F2FE80B8F90840009B3C
:100EA000002CFB63C3DBD8F814A004EB440B3846DA
:100EB0000AEBCB05D5E9029600F0B4FB484561EB9F
:100EC00006010029B3DB002EC0F2C3802B697F4AE4
:100ED000934200F0FD806A88B8F9080092B242EAB5
:100EE00000406969984702460B4652EA030100F048
:100EF000B080002B80F2D580B9EB020066EB0303D3
:100F0000C5E902033AF93B50002D90DBD8F814C034
:100F100005EB45010CEBC1018A68821ACA6863EBD4
:100F20000202002A83DBA8F8085007E09568451BF9
:100F3000D56863EB0505002D08DB1146B1F90060AB
:100F400006EB4602002E0CEBC202EFDA2AF83B60F9
:100F50000C80B8F804301B043FF56EAFD8F81030A1
:100F6000EFF3108272B6D3E8CF0F01210028FAD137
:100F7000C3E8401F0028F6D1BFF35F8F4FF6FF7024
:100F8000B8F804900023D8F810100FFA89F9A8F8DF
:100F90000400C1E88F3F82F310889945FFF64CAFFB
:100FA000BA46D8F8145008F1080B09EB490E05EBC6
:100FB000CE03D3E90267B8F90830DC46002B05DA26
:100FC0000FE035F934308446002B0ADB03EB430491
:100FD00005EBC400D0E90212711A67EB0202002A85
:100FE000EFDAACF8009035F93E9025F83E30B9F1D3
:100FF000000FDADA98F806305746002B3FF421AF9D
:10100000002388F80630B8F9083008F1080C5E1C97
:1010100041D01A46D8F8144003E08446591C3FF4E6
:1010200012AF03EB430104EBC10045881E462D04BB
:1010300034F93130F1D5964280ED028BEED0ACF828
:101040000030B8F8082024F831203246A8F80860AB
:10105000E4E73AF83B30A8F80830D8F81030EFF35E
:10106000108272B6D3E8CF0F01210028FAD1C3E86D
:10107000401F0028F6D1BFF35F8FB8F80230D8F8D0
:1010800010102AF83B300023A8F80240C1E88F3F37
:1010900082F31088CBE640BF05B0BDEC028BBDE803
:1010A000F08F3846CDE9022300F0BCFA029A039B88
:1010B000801843EB010323E7FFFFFFFFFFFFFFFF64
:1010C000001F002000000B4000800B40E90D0010C5
:1010D0006B6918461A69029390470028B9D0029BA1
:1010E000D3E9002301E700BF0B4808B50368EFF31D
:1010F000108172B6D3E8CFCF0122BCF1000FF9D135
:10110000C3E84C2FBCF1000FF4D1BFF35F8F00F0A8
:10111000CFFF0020002108BDC42100202DE9F84F99
:10112000364C25692DB1BDE8F84F0A213448FFF748
:10113000FDBDDFF8E48003260321404600F060FA9D
:10114000C4F80C80FFF7AAFB4FF0504C2D4B2670D3
:101150001844DCF800300F216370636961801D83DF
:101160004FF00405A3F878504FF00505A3F8905010
:101170004FF00605A3F8A8504FF007050E21206197
:1011800008274FF6FF724FF00A0EA3F8C0504FF039
:1011900001094FF00C0C4FF0020B4FF0090A0D2023
:1011A0004FF00B05A3F868111749A280A3F808E1D6
:1011B000A160A3F848B0A3F8F0A0A3F82051A3F8C9
:1011C00038C1A3F85001A3F83090A3F86060A3F8E9
:1011D000D8701A800D4B3046C8F820700C49DC607E
:1011E000FFF7FAFB49463046FFF7B2FB094B0A21ED
:1011F0001F600348BDE8F84FFFF798BD4C12002070
:10120000C421002068160020FFFF1000001F0020EE
:10121000E90D001040200B4000000B4000487047D3
:101220004C1200202DE9F0419DF82050044617464D
:101230001E4635B900F0FEF9874266EB0101002930
:1012400057DB2169EFF3108072B6D1E8CF2F01236D
:10125000002AFAD1C1E8423F002AF6D1BFF35F8FDE
:10126000B4F90220D4F814C002EB4201002A4FEA7C
:10127000C10E0CEBC10102DB3CF80E3063804FF075
:1012800000082369C3E88F8F80F31088424533DB61
:101290004888069B0130C0F30E00012838BF0120AA
:1012A0000B61079B48804B61C1E9027640EA02402E
:1012B0002369EFF3108172B6D3E8CF6F0125002EBA
:1012C000FAD1C3E8465F002EF6D1BFF35F8FA38843
:1012D0002CF80E30A2802369C3E88F8F81F3108829
:1012E0000122E368217803F501538A405A60BDE882
:1012F000F0812846BDE8F0814FF0FF30F7E700BFEE
:101300000146F0B50069EFF3108772B6D0E8CF5F01
:101310000124002DFAD1C0E8454F002DF6D1BFF3CE
:101320005F8FB1F902E04C690EEB4E0C4FEACC0630
:10133000BEF1000FA8BFA05B4FF00005A8BF48801A
:1013400004EBCC0C0869C0E88F5F87F31088AE45CA
:1013500035DBBCF80200CCE902230130C0F30E00FB
:10136000012838BF0120059BACF80200CCF81030F2
:10137000069B40EA0E40CCF814300B69EFF3108264
:1013800072B6D3E8CFCF0127BCF1000FF9D1C3E883
:101390004C7FBCF1000FF4D1BFF35F8F8B88A35358
:1013A000A1F804E00B69C3E88F5F82F31088012283
:1013B000CB68097803F501538A405A60F0BD4FF0BD
:1013C000FF30F0BD4289B2EB214F38DD42690B148A
:1013D00003EB430310B502EBC3030469EFF3108C76
:1013E00072B6D4E8CFEF0122BEF1000FF9D1C4E804
:1013F0004E2FBEF1000FF4D1BFF35F8F5A8889B230
:1014000092B28A4207D000230269C2E88F3F8CF370
:101410001088184610BD42F400425A800123002271
:1014200001698371C1E88F2F8CF31088C26801783D
:1014300002F5015203FA01F11846516010BD002077
:10144000704700BF407870472DE9F043B0F1960631
:1014500041F1FF35B04271EB050338BF002683B080
:1014600038BF354604460F4600F0E4F8301A65EB05
:101470000101012871F1000306DA2046394603B064
:10148000BDE8F04300F0E0B800F0D4F8864265EB28
:10149000010100290ADB0021154B32460093154853
:1014A0002B460191FFF72CFF0028E6DBDFF84C808C
:1014B000DFF84490D8F824309D4205D8D8F8282089
:1014C000B242DAD29D42D8D1D9F80030EFF3108180
:1014D00072B6D3E8CF0F01220028FAD1C3E8402F1B
:1014E0000028F6D1BFF35F8F034800F0ADFDE1E7C0
:1014F000E91000104C120020C421002000000B4015
:1015000010B5044600F096F84FF47A73E4FB03013B
:10151000BDE810400029BCBF4FF0FF306FF0004124
:10152000FFF792BF2DE9F04307460E4683B0EFF375
:101530000584E4B274B12F4B586A884203D200206C
:1015400003B0BDE8F0839B6ABB4248D3012003B0DF
:10155000BDE8F083284DD5F80C9095F800804846FA
:1015600000F060F808F1040859F828301B1A381AFE
:1015700066EB0101984271F100030DDB20BF1D4BAA
:10158000586A8642DBD89B6ABB42DFD2301A18BF4A
:10159000012003B0BDE8F08300F04CF8874266EB11
:1015A0000101002913DB154B2846CDE900343A46EA
:1015B0003346FFF7A5FE011E09DD0E4B5A6A96421F
:1015C00015D89B6ABB4210D30B48FFF7FBFE094BB3
:1015D000586A8642B3D89B6ABB42B7D2D6E7401A54
:1015E00018BF012003B0BDE8F0839642ECD120BFC4
:1015F000EAE700BF00000B404C120020E910001089
:1016000010B4054B054C064AA04214BF1846581C9E
:101610005DF8044BFFF7C6B8881A002000800B4025
:10162000BC990010416A0B46826A416A8B42FAD12A
:1016300010467047034B596A0A46986A596A9142A4
:10164000FAD1704700000B40074A536A9942FCD810
:10165000994207D1044B02E05A6A914202D19A6A38
:101660008242F9D3704700BF00000B40F0B500265E
:1016700001270468002BE6668446616030469DF8C9
:101680001450E7661ADD85EA0706760203F1FF3E8D
:10169000616F1029FCD000B34FF48071002786459C
:1016A00004BF47EA060141F480712161D4F880103B
:1016B000616B490605D54FF0FF30636D8CF804501F
:1016C000F0BDA16F0029F1D021690130834202F8F9
:1016D000011BF3D0DCF80040DAE79CF80410002985
:1016E0000BBF4FF480714FF4A06100274FF4806767
:1016F000D5E700BF2DE9F0414FF0010C002504684B
:10170000002BE5660646616028469DF81870C4F80F
:101710006CC020DD87EA0C056D0203F1FF3EE8B1E5
:101720004FF0000886450CBFAC464FF0000C12F895
:10173000011B41EA080141EA0C012161616BC90604
:10174000FCD5D4F880C0BCF1000F0FD1864525D060
:1017500001308342E3D13771BDE8F081317900294E
:101760000CBF4FF000084FF48068DBE74FF0010832
:10177000616D616B8905FCD5216EB8F1000FE7D072
:10178000BCF1000F0ED01CF0010F0BD11CF0080FA4
:1017900008BF4FF0FF303771BDE8F081002FD7D17F
:1017A000B846E6E74FF0FF30D5E700BFF8B506468C
:1017B00005200C4600F0ECF800EB540CBCFBF4FCEC
:1017C000214B0CEB4C02A3FB025320499F088C4297
:1017D000ACEB930530D801F1D64101F5A10101F63A
:1017E0002C0100EB4003A1FB03139B0D01330024EC
:1017F0004F2A98BF01223168B0FBFCF0CC660C6820
:1018000001F5805684F0040404F00604346088BFB7
:101810000D4CCD6184BFA4FB024292090F62C1F856
:10182000A0200A46012452F87C5F6B409BB202F56F
:1018300080521360CC66F8BD054900EB4003A1FB64
:101840000313DB0D0133D2E7CDCCCCCC3F420F00EC
:10185000893BE6550E4A30B490420CBF102220223C
:101860000C4D0D4B0D4C2A601A60A36832EA03033D
:10187000FBD140F26515032402680371D36615603D
:10188000D3639363C2F8884030BCFFF78FBF00BFBB
:10189000641200200020024000300240000002409C
:1018A00010B49DF8044001945DF8044BFFF722BF8B
:1018B00010B49DF8044001945DF8044BFFF7D6BEC8
:1018C00000EB400C4FEA8C0C0CF1804C0CF5803C8A
:1018D00070B5DCF80440A0F1040EB4F5803F38BFC9
:1018E0004FF480345FFA8EFE38BFCCF80440BEF16E
:1018F000010F29D94FF40066244D0CF540542660A1
:1019000055F82060BEB9DCF800400CF5805684EA3A
:10191000421202F0E002BEF1010F326028D94FF40A
:10192000006145F820304FF480330CF5005211600F
:10193000CCF8043070BD6C69B4FBF6F4013404EBF0
:101940004404033CFDD2DEE70129D3D103250CF585
:1019500040542560DCF80840E407FBD5DCF8004083
:101960000CF5805684EA421202F0E002074D326024
:101970000122DCF800404C4004F00304346002FA19
:1019800001F1DCF808200A42FBD0C8E78C1A0020DD
:10199000014B53F8200070478C1A002070B4039C50
:1019A0000568240344EA03431B4C002DB4FBF1F407
:1019B000B2FBF4F21FDB194D194CA8420CBF4FF4D7
:1019C00000454FF48045174E256004F5805425608E
:1019D000B46835EA0404FBD1212500F540540434F1
:1019E0000160826025600268002AFCDA0822C36078
:1019F000226070BC7047046804F03F048C42DAD166
:101A00008468C4F30B049442D5D1C46804F4EE2472
:101A10009C42D0D1EDE700BF001BB700008005401D
:101A2000002002400000024030B44FF080441D4BC3
:101A30001C60E0B11C4CA3F54053DC611B4C40F032
:101A4000010044401C62596298624FF080454FF09B
:101A5000E061144B1648174C1D60846019604AB948
:101A600030BC4FF00042A3F580531A607047124B10
:101A7000D861EAE74FF47A7303FB02F2B2F1807F98
:101A800009D20E4B1A604FF0804130BC0A480C4B13
:101A90004260196070476FF07F4308491A460B6037
:101AA000F1E700BF00B00D40D3C007B02D3FF84FA5
:101AB00000A00140F3FFFF0100800D40F01E002058
:101AC00000A00D40012300EB4000800000F18040A9
:101AD00000F5841041600360704700BF10B500241A
:101AE00082B00B46E48A002141E800F1CDE9000311
:101AF0004B0254BF1021042144F25220A047DDE9DB
:101B0000002386460A214FF48170F44602B0BDE8F6
:101B1000104060470023DB8A002242E800F25202B4
:101B200001D4102118470421184700BF08B50B46FF
:101B3000011E02DB22B143F030031846FFF7CEFF4F
:101B400043F02003F9E700BF034AD2F82838002BFE
:101B5000FBD0BFF35F8F704700000E400021044BA5
:101B6000044ABFF35F8F43F8041B9342F9D17047D7
:101B70000C080E402C080E4010B44FF48D704FF43A
:101B80002A64064A064B07491460D06019605368FE
:101B9000002BFCDA5DF8044B704700BF0080044066
:101BA00000A0044000B0FA00F8B5431E0A3311D873
:101BB00000F1080410F0070005D0C0F10800C3438D
:101BC000A34207D3044401F0EFFB334923460D68D9
:101BD00015BB0AE001F0E8FB2F490B6823B1002593
:101BE00002F048FC2846F8BD1C462C4842074BD161
:101BF000024600F58025083D25F007050D6000210F
:101C0000274EAA1AC6E90001C5E900112549C0E915
:101C100000520A6024490A60002BE0DD224F3E6832
:101C2000A642DCD31E4B18461B6803E01A6822B19B
:101C3000184613465968A142F8D3AB42CFD01D468F
:101C4000A1EB040C55F8082BBCF1100F026007D96A
:101C5000214603EB040ECEF804C01A51C0F800E090
:101C60000024104A761A106841F0004186420F485D
:101C700038BF16600268596001321C603E60026025
:101C800002F0F8FB2846F8BDC21D22F0070200F55D
:101C900080251046AFE700BF301F0020D021002074
:101CA000A022042070220420602204207C22042030
:101CB00030B150F8043C002B02DA50F8082C02B185
:101CC000704710B523F0004382B040F8043C194C33
:101CD000019001F069FB0198226850F8041C164B32
:101CE0000A44083822601A461B689842FBD8546898
:101CF00002EB040C604519D04418A3420CD00360D9
:101D0000824218BF10600D4A13680133136002B09D
:101D1000BDE8104002F0AEBB094C2468A342EED0EF
:101D2000D3E900342144C0E90031E9E721441046F9
:101D30005160E1E760220420A022042080220420D8
:101D4000301F00200A4B93F90020002A0FDB4FF0D0
:101D500050410123D1F888019340184207D04FF039
:101D6000E0224FF08050C1F88C31C2F8040D70476A
:101D70006C120020002300B583B0019300F094FAA8
:101D8000019B002BFCD003B05DF804FB10B502F002
:101D90004FFC044601F01CFB28B14FF0E0234FF04C
:101DA0008052C3F8042D2046BDE8104002F0D6BC96
:101DB00010B504224FF0E024002322610520A36126
:101DC000FFF7E6FD0722044BA3FB00308309013B2C
:101DD0006361226110BD00BFD34D62104FF0E0235C
:101DE0004FF07F42002130B585B00391C3F81C2D20
:101DF000D3F81C3D1B0E8DF807309DF807309DF879
:101E000007301A060CD5039B013303939DF8073066
:101E10005B00DBB28DF807309DF807301B06F2D46B
:101E2000039B082B40D0039BC3F107031B0203F461
:101E3000E0634FF050412548254A036012780B6853
:101E40009A4233D04FF0E02300244FF05045D3F8AE
:101E5000202D204942F47F02C3F8202D0E20C3F824
:101E60001C4D02F0E3FE1C490B2002F0DFFE2A6845
:101E70001A4BFF2143F822401A20FEF7D1FE1A2008
:101E80001749FEF7A9FD01211A20FEF761FD00F0B8
:101E900003FA286801F0D8FB029400F005FA029BCF
:101EA000002BFCD005B030BD0023C2E7FFF780FF58
:101EB0004FF0E022D2F8203D0A4943F07F43C2F8B8
:101EC000203D0F2002F0B2FEBCE700BFE02104205D
:101ED0006D120020D122001069230010D8210420A7
:101EE000451D00108D1D001008B500F0DDF9BDE89E
:101EF0000840FFF773BF00BF4FF0E0234FF0805260
:101F0000C3F8042DBFF34F8FBFF36F8F704700BF2F
:101F1000836913F8023C662B00D070474FF0E02332
:101F2000D3F8882D42F47002C3F8882DD3F8342FEB
:101F300042F04042C3F8342F00F092B92DE9F04747
:101F40004FF080744FF010374FF0093540F8044CD3
:101F50004FF0073440E90B57164D40F8344C40E938
:101F600003524FF0113C4FF006344FF0053240E978
:101F700009C340E90F2403464FF0123A4FF00339EA
:101F80004FF002384FF0013E4FF008364FF0043565
:101F90006FF0020240E9059A40E907E840F8306C2A
:101FA00040F8405C40F8442C43F8481D1846BDE812
:101FB000F08700BF751D001070B50E20FEF77AFC8B
:101FC0000F20FEF777FC0121032002F0C5FE024638
:101FD00001234FF05041002452B2084E9340084D67
:101FE00032700848C1F88C31C1F884312C7002F08D
:101FF00091FEFFF7F3FE204670BD00BF6C1200207B
:102000006D120020E91E0010EFF305830F2B84BF33
:10201000014A9B5C704700BFF0E300E0094B1B786E
:10202000FF2B0BD0EFF30583DBB22BB14FF0504207
:10203000106800EB4300704701F0B4BD4FF050430F
:10204000186870476D120020154B1B78FF2B07D1C5
:1020500000230268C2E88F3F81F3108820BF7047D9
:1020600010B5002382B00268C2E88F3F81F3108868
:102070004FF0FF34012200680A490094401A0A49CF
:10208000A1FB00C1090901EB4101A0EBC101074817
:1020900002FA01F1006800F0B3F902B010BD00BF10
:1020A0006D12002068160020ABAAAAAA5C220420A8
:1020B00010B5204B8E461B7882B0FF2B30D04FF0EE
:1020C000010C1D4902681D4B521AA3FB02131B0988
:1020D00003EB4303A2EBC3030CFA03F140BF00245C
:1020E0000368C3E88F4F8EF31088EFF30583DBB2EC
:1020F00033B9134B186802B0BDE8104000F0DAB9EC
:102100000F4B01AA1868019400F008FA019B2BB14B
:102110004FF0E0234FF08052C3F8042D02B010BD01
:1021200040BF00230268C2E88F3F81F3108802B0ED
:1021300010BD00BF6D12002068160020ABAAAAAA2D
:102140005C220420F0B5354C064694F800C00F46DA
:10215000BCF1FF0F14461D4683B04ED0FFF76AFA5C
:1021600040F2E733B4EB000C65EB010E1CEB03000F
:102170004EF10001B0F57A7F71F100031CDA002303
:102180003268C2E88F3F87F31088254B5A6A954220
:102190000CD94FF0E0234FF08052C3F8042DBFF369
:1021A0004F8FBFF36F8F002003B0F0BD9B6AA34237
:1021B00030D3012003B0F0BD4FF47A72002307F052
:1021C0004BFA0028DBD000233268C2E88F3F87F348
:1021D00010880122009030681249401A1249A1FB70
:1021E0000061090901EB4101A0EBC1010F4802FAAE
:1021F00001F1006800F004F9C7E700230268C2E8B3
:102200008F3F81F310882046294603B0BDE8F04097
:10221000FFF788B99542BCD00120CBE76D120020B2
:1022200000000B4068160020ABAAAAAA5C2204207A
:1022300008B500F0D7F8014B186008BD5C220420F7
:1022400001234FF05042034991F900108B40C2F82E
:10225000803170476C120020000000000000000078
:102260000BA10CC9126853F82210086806C881F344
:102270000B88022181F31488203080F30988BFF392
:102280006F8F4FF0000080F311881047AFF300808C
:10229000000000D0201F002062B661B6BFF34F8F50
:1022A000BFF36F8F66DF00BFEFF311804FF01001B7
:1022B00081F31188BFF34F8FBFF36F8F704700BF5B
:1022C00080F31188BFF34F8FBFF36F8F704700BF4C
:1022D000EFF309811EF0100F08BF21ED108AEFF314
:1022E0000B82734621E9FC0F55FC084457FC096436
:1022F00059FC0A8401E9F00319A00CC8106853F8CE
:10230000203019604FF0100181F31188BFF34F8F17
:10231000BFF36F8F01F098F94FF0000080F3118840
:102320000FA10CC9126853F8221008681838B0E8D9
:10233000F00345EC004447EC016449EC0284B0E84A
:10234000FC0F13F0100F08BFB0EC108A82F30B885B
:1023500080F30988184700BFAFF30080AFF3008017
:10236000000000D0201F00201EF0040F0CBFEFF370
:102370000880EFF30980014908470000111F001091
:102380002DE9F04106460D4601F00EF83368346938
:1023900006F10C072B43A74233601ED04FF0000814
:1023A0000AE02B4206D0D30148BF48EA050802F0F4
:1023B0009DF83368A7420ED020460268646812F088
:1023C000806F43F0007122F07F45EAD035EA030CBC
:1023D000E9D0A742F0D123EA08033360BDE8F04119
:1023E00002F048B810B51C20FFF7DEFB044620B110
:1023F000002340F8043B00F09FF8204610BD00BFCA
:102400002DE9F04106461F460D46904600F0CCFFF0
:10241000346867B92C420DD0B8F1000F0CD024EA13
:102420000505356002F026F82046BDE8F08135EA62
:102430000403F1D0069B23B902F01CF82046BDE846
:10244000F081B8F1000F1A460BBF4FF080614FF0DA
:10245000A06100234FF08073002F08BF1946301D84
:10246000294301F087FA02F005F848B102F0A8F913
:10247000830104460BD524F07F442046BDE8F0815B
:1024800001F002FC02F09CF983010446F3D401F050
:102490000DFC346857B9254205D0B8F1000F02D0C1
:1024A00024EA0505356002F00DF9E4E735EA040396
:1024B000F9D1F2E72DE9F04106460D4600F074FF30
:1024C0003368346906F10C072B43A74233601ED0F2
:1024D0004FF000080AE01D4206D0D30148BF48EA89
:1024E000050802F003F83368A7420ED020460268C0
:1024F000646812F0806F43F0007122F07F45EAD0EB
:1025000035EA030CE9D0A742F0D123EA080333608F
:1025100001F0B0FF3068BDE8F08100BF8C4600B527
:10252000864613467146624602485DF804EB02F0A7
:1025300065BB00BF812300104FF0FF31002200F186
:102540000803C0E90131C0E903330260704700BFEE
:1025500000230361704700BFD0E9002310B49C68DA
:1025600001328C609C684B60616099605DF8044B3F
:1025700008610260704700BF30B40D686B1C10D05A
:1025800000F108031C465B681A68AA42FAD902687F
:102590004B60013299608C606160086130BC026000
:1025A000704704696368F2E70346026910B454682F
:1025B000406899689C428160486008BF5160002172
:1025C00010685DF8044B013819611060704700BF56
:1025D00070B51546026C0446866B2AB905684DB382
:1025E00000200136A66370BD7DB9406806F014FF77
:1025F0006368226C1344A26863609342F0D323683B
:10260000013628466360A66370BDC06806F004FF0B
:10261000226CE36851429B1A2268E360934202D223
:10262000A3680B44E360022DDAD1012E38BF0126E6
:102630000020D7E7806801F0C5FA0136A560D1E730
:102640002DE9F047064684B001F030FB96F845309E
:102650005DB2002D1CDD06F1240708E0A26BE36BE0
:1026600003969A423DD36B1EDAB25DB282B1B46C6E
:10267000002CF3D1736A5BB1384601F019FA0028D7
:10268000F1D001F085FA6B1EDAB25DB2002AEED10C
:10269000FF2386F8453002F015F801F007FB96F8A5
:1026A00044305CB2002C14DD06F1100503E0631E1B
:1026B000DAB25CB26AB133695BB1284601F0F8F96D
:1026C0000028F4D001F064FA631EDAB25CB2002A8A
:1026D000F1D1FF2386F8443004B0BDE8F04701F0A3
:1026E000F1BF94F84580226CD4F838904FFA88F8FE
:1026F00092B92368002B3BD04FF0000A09F1010387
:10270000B8F1FF3FA3631CD1636A43BBBAF1000F6A
:10271000A9D001F03DFAB6E7606803A906F07CFE97
:102720006368226C1344A26863609342E4D3236815
:10273000B8F1FF3F636009F101034FF0000AA363A2
:10274000E2D000F03FFE4045E0D908F101084FFA21
:1027500088F884F84580BAF1000FDAD183E704F1F4
:10276000240001F0A5F90028D0D001F011FA8AE781
:10277000A068019301F026FA019B8246A360BDE7A1
:10278000F0B5846C83B0A26BE36B01909A4203D3E3
:102790000025284603B0F0BD94F84560226CA76B75
:1027A00076B2E2B1606801A906F036FE6268236C79
:1027B0001A44A36862609A4213D3002523686360B9
:1027C0000137731CA76312D1636A002BE1D004F1B7
:1027D000240001F06DF9002818BF0125D9E725680C
:1027E00075B10137731C4FF00005A763ECD000F002
:1027F000E9FD8642CDD2013676B284F84560C8E75D
:10280000A06801F0DFF9A5600546D9E7F8B5C0B3C7
:102810001746A0FB012305460E4693BB01FB00F0C3
:1028200010F1550F2DD85430FFF7BEF9044640B3D0
:1028300056B300F15403C4E90F56236001F036FA91
:10284000D4E90F3101FB03F32268591A1344002520
:10285000A360FF2362600A44E260A56304F11000F4
:1028600084F8443084F84530FFF766FE04F1240014
:10287000FFF762FE01F026FF84F850702046A56441
:10288000F8BD00242046F8BD0346D4E72DE9F04307
:10289000002685B0044689461F46B046019207E0EF
:1028A00001F010FF2046FFF7CBFE01F0E3FD01260B
:1028B00001F0FCF9A06BE26B90423AD3022F4CD0AE
:1028C000019D002D54D086B301F0FCFE00F06CFD9C
:1028D00001F0ECF994F84430FF2B08BF84F84480F1
:1028E00094F84530FF2B08BF84F8458001F0EAFEDC
:1028F00001A902A801F048FE00283FD101F0D6F955
:10290000A26BE36B9A42CBD101F0DCFE019904F19A
:10291000100001F015F82046FFF792FE01F0AAFD25
:102920000028C4D101F0B0F9C1E702A801F024F9F0
:10293000CAE73A4649462046A56BFFF749FEA36C15
:102940002BB3022F11D02046FFF71AFF18BB01F05E
:10295000B9FE012005B0BDE8F0833A46494620465D
:10296000A56BFFF735FEA36C8BB1002DEBD0EEE726
:1029700001F0A8FE284605B0BDE8F0832046FFF729
:102980005FFE01F077FD002005B0BDE8F083636ACB
:1029900023B90028DBD001F077F9D8E704F124004F
:1029A00001F086F80028D2D0F5E700BF2DE9F84302
:1029B000044690461D460F46FFF726FB01F038FE01
:1029C000A26BE36B06469A4208D3022D06D000257F
:1029D000304601F0C3FE2846BDE8F883394694F836
:1029E00045702A4620467FB2D4F83890FFF7F0FDB4
:1029F0007B1C12D1A36CFBB1022D02D1B9F1000FE7
:102A00001CD12046FFF7BCFEC0B1B8F1000F15D0B5
:102A100001231D46C8F80030DAE700F0D3FC8742F6
:102A20000CD2012501377FB2304684F8457001F0A1
:102A300095FE2846BDE8F883636A33B90125304620
:102A400001F08CFE2846BDE8F88304F1240001F073
:102A50002FF80028D9D1F1E72DE9F041044684B0E0
:102A60000F46019201F022F9A56B002D55D1019B73
:102A7000ABB302A801F080F82E4604F1240801F05F
:102A800021FE00F091FC01F011F994F84430FF2B85
:102A900008BF84F8446094F84530FF2B08BF84F8E1
:102AA000456001F00FFE01A902A801F06DFDE0B93B
:102AB00001F0FCF8A36B2BBB01F004FE404601992A
:102AC00000F03EFF2046FFF7BBFD01F0D3FC08B34A
:102AD00001F0ECF8A56B05BB019B002BCFD101F0F9
:102AE000F1FD002004B0BDE8F0812046FFF7A8FD0D
:102AF00001F0C0FC01F0DAF8A36B002BEFD001F07D
:102B0000E1FDE5E701F0DEFD2046FFF799FD01F06C
:102B1000B1FCDDE701F0B8F8DAE7226C5AB1E16800
:102B2000A36811449942E16028BF2168384628BF54
:102B3000E16006F071FC2369013DA5632BB901F04A
:102B4000C1FD012004B0BDE8F08104F1100000F0E7
:102B5000AFFF0028F3D001F097F8F0E700297ED00E
:102B600030B400242346444D05EBC30252684FEABB
:102B7000C30C824270D034B10133082BF4D1C4E9C4
:102B8000001030BC704755F83320002A5FD0072B67
:102B900003F10102F5D005EBC20464684FEAC20CF0
:102BA000A04259D055F83240002C59D0062B03F1E1
:102BB0000202E6D005EBC20464684FEAC20CA042F0
:102BC0004AD055F83240002C4AD0052B03F10302BD
:102BD000D7D005EBC20464684FEAC20C84423BD0F4
:102BE00055F83240002C3BD0042B03F10402C8D02E
:102BF00005EBC20464684FEAC20CA0422CD055F821
:102C000032406CB3032B03F10502BAD005EBC204CA
:102C100064684FEAC20CA0421ED055F83240FCB1A5
:102C2000022B03F1060CACD005EBCC0252689042AB
:102C300010D055F83C20BAB1012BA2D0EB6B9842D2
:102C400016D0AB6B002B9CD107234FF0380C05EB53
:102C50000C0491E74FEACC0C05EB0C048FE77047AE
:102C6000134605EB0C0487E763464FEACC0CEEE70E
:102C70004FF0380CF0E700BF4814002070B5044650
:102C80000E46154601F012F894F84430FF2B04BFAD
:102C9000002384F8443094F84530FF2B04BF002310
:102CA00084F8453001F00EFDA36B23B12046BDE84A
:102CB0007040FFF7C5BC04F124002A46314600F0FD
:102CC000A9FE2046BDE87040FFF7BABC064C08B527
:102CD000FFF712F92368022B00D8FEE7FFF70CF983
:102CE0002368022BFAD8F8E73C1F002038B5836B25
:102CF000002B02DB836B012B31DD2D4C016B226835
:102D00002368126BDB6B4D1EDB07236848BF02F1A3
:102D1000FF329B6B002B03DB23689B6B012B1FDDBA
:102D20004FF0FF3362686168126BC96BC907616855
:102D300048BF02F1FF32896B002903DB6168896BB0
:102D400001291CDD01330AD000254FF050431B68D8
:102D50009D4228D054F825309B6B02331AD138BDE0
:102D6000144B1B68002BDBD19542D9DB416801F085
:102D70000101002914BF15464FF0FF33D2E70D497A
:102D800049680029DED1AA42DCDC42689207D9D525
:102D90000125DAE72846FFF753FA6FF0010254F8ED
:102DA00025309A6338BD0122024B43F8252038BDF7
:102DB000201F0020DC2204204FF050411B4B0A68EA
:102DC00053F8220000282CD053F82200013843F891
:102DD00022000A6853F822301BBB10B51449154B6A
:102DE00053F822400B78013BDBB20B702BB9124831
:102DF00000F81230114AC2E88F3F4FF050424B7832
:102E00001068013BDBB24B7033B90B4A0C4902EB43
:102E100040025370C1E88F3F0020FFF751FA0CB910
:102E200010BD7047BDE81040FFF766B8D8210420F8
:102E3000D4210420DC220420D02104207616002096
:102E4000771600204FF05042504B12682DE9F047A2
:102E5000DFF844914E4CDFF8448153F822604D4D29
:102E600040E0DFF83CA10020FFF72AFAFFF71CFA48
:102E70004FF050431B68DAE8CF2F0121002A01D11F
:102E8000CAE8421FBFF35F8F002A50D15B000122C6
:102E9000434462705A704FF050431A68D5E8CF3FF0
:102EA0000121002B01D1C5E8431FBFF35F8F73B130
:102EB00018F81230002B4BD1D5E8CF1F0123002981
:102EC000FAD1C5E8413F0029F6D1BFF35F8F012356
:102ED000237008F812304FF050431A6849F82270F6
:102EE000002F40D0B36B02334ED14FF050410A68EF
:102EF00059F822706FB1002349F8223023780A680C
:102F0000013BDBB223701BB908F81230C5E88F3FD4
:102F10000A686378013BDBB26370002BA1D108EB38
:102F20004202DFF87CA05370CAE88F3F9BE708EBB2
:102F3000430252785B0012BBDAE8CF1F012200295E
:102F4000FAD1CAE8412F0029F6D1BFF35F8F9EE77F
:102F500023780133DBB223704FF050431A6849F8ED
:102F60002270002FBED11A682378013BDBB2237098
:102F7000002BB7D108F81270C5E88F7F6FE7637830
:102F80000133DBB2637086E7BDE8F087201F0020C5
:102F9000D421042076160020D8210420D02104203A
:102FA0007716002070B582B0FFF77EF94FF05042DF
:102FB000384B1268D3E8CF1F0124002901D1C3E8A0
:102FC000414FBFF35F8F344D002941D151000123A0
:102FD000324C294463704B70314E3368002B48D01B
:102FE0004FF050432F4A1968D2E8CF3F5FF0010CF1
:102FF000002B01D1C2E843CFBFF35F8F83B115F837
:103000001130002B40D1D2E8CFCF0123BCF1000F0B
:10301000F9D1C2E84C3FBCF1000FF4D1BFF35F8F90
:103020000123237005F811304FF05041336801330C
:10303000336023780968013BDBB223701BB905F8C4
:103040001130C2E88F3F02B0BDE87040FFF738B9D9
:10305000510005EB4202527882B9D3E8CF4F0122EA
:10306000002CFAD1C3E8442F002CF6D1BFF35F8FB8
:10307000ADE70190FFF7E6FE0198B1E7074C6378F2
:103080000133DBB26370A7E723780133DBB223702F
:10309000CAE700BF77160020D0210420D4210420E5
:1030A00000220420761600202DE9F8435E4C5F4D87
:1030B0005F4EDFF898815F4F2368002B3AD0FFF70F
:1030C000F3F82B6893B14FF050431B6856F8232058
:1030D000002A41D04FF0504156F82320013246F8E3
:1030E00023200B6856F82330012B2ED023681BB306
:1030F000514BDB68D3F80C90D9F83830013340F0ED
:103100008B8009F10800FFF74FFA4C4A1368013B26
:1031100013602368013B23602B680BB1FFF74CFE63
:10312000D9F83400FEF7C4FD4846FEF7C1FD236818
:10313000002BC4D1BDE8F8832B68002BBCD0FFF76F
:103140003BFE2368002BBAD1F4E7D8F80030002BFF
:10315000CCD1FFF777FEC9E7D7E8CF2F0121002AAE
:1031600001D1C7E8421FBFF35F8F002A35D1344A2F
:10317000590001233348114443704B704FF0504CB9
:10318000314BDCF80010D3E8CFEF5FF00109BEF15E
:10319000000F01D1C3E84E9FBFF35F8FBEF1000F58
:1031A00012D012F811E0BEF1000F28D1D3E8CFEF12
:1031B0005FF0010CBEF1000FF8D1C3E84ECFBEF1B5
:1031C000000FF3D1BFF35F8F01234FF0504C03701A
:1031D00002F81130DCF800307CE7194A590002EBA4
:1031E00043035B7893B9D7E8CF0F01230028FAD1C6
:1031F000C7E8403F0028F6D1BFF35F8FB9E70378F7
:103200000133DBB20370DCF8003063E70D4843782C
:103210000133DBB24370B1E72B68002B8AD0BDE8E5
:10322000F843FFF7C9BD00BFFC2104209C22042005
:10323000D821042077160020BC220420F821042085
:10324000D0210420D421042076160020002204205E
:1032500008B5FEF751FE044CFFF726FF2368022B4A
:10326000FAD9FEF749FEF7E73C1F00202DE9F84F99
:103270004FF05045464A474B474C0F46D4F800A004
:10328000464ED2F800800446D3F80090FFF70CF8C1
:103290002B6856F823B0FFF713F800238BF879302A
:1032A000FFF702F82B6856F823B0FFF709F80BF187
:1032B0000800FFF779F9631C00D18FBB4FF0504530
:1032C0001AEB04042CBF01270027FEF7EDFF2B6843
:1032D00056F823A0FEF7F4FFCAF8084097B9FEF7A6
:1032E000E3FF2B6856F82350FEF7EAFF404605F14E
:1032F0000801FFF741F92A4B1A68A24288BF1C60F7
:10330000BDE8F88FFEF7D0FF2B6856F82340FEF794
:10331000D7FF484604F10801BDE8F84FFFF72CB984
:10332000204C6768FEF7C0FF2B6856F82380FEF735
:10333000C7FFC8F80C70FEF7B7FF2B6856F823805C
:10334000FEF7BEFFBB68C8F81030FEF7ADFF2B6874
:1033500056F82380FEF7B4FFBA6808F108035360FB
:10336000FEF7A2FF2B6856F82380FEF7A9FF08F1AD
:103370000803BB60FEF798FF2B6856F82350FEF752
:103380009FFF2368AC6101332360BDE8F88F00BF65
:103390002C1F0020341F0020D0220420201F0020DA
:1033A00074220420A8220420024B1B6803B9704732
:1033B000FFF7F8BD9C220420014B1868704700BF3E
:1033C000D0220420014B1868704700BFF821042068
:1033D0002DE9F84F914B1B68002B4ED1904B1D6887
:1033E00001351D60002D50D0DFF85492D9F800301F
:1033F000AB4263D98B4C8C4D2B681B6B03EB830367
:1034000054F82330012B40F2C1806B681B6B03EB37
:10341000830354F82330012B4FF0504340F2D18006
:103420001B6801241E46002E00F0F480002B00F0E3
:10343000DA802B689B6B023306D00020FEF700FF7A
:103440006FF001022B689A63002C00F0D1800024F9
:10345000012E00F0DD804FF050431B68012B00F07F
:10346000D2806B689B6B02330CD00120FEF7E8FE24
:103470006FF001026B689A6304E000246B4A1368E2
:10348000013313602046BDE8F88F694B694A18681C
:1034900011681960684910600A6801320A601A6888
:1034A0001268002A40F085804FF0FF33DFF89091DA
:1034B000C9F80030D9F80030AB429BD85C4E336875
:1034C0001B68002B00F099804FF0000B554CDFF883
:1034D00074814EE0D2F818C0D2E9033AC3F808A0CC
:1034E000CAF80430DCF8043010468B42DCF80030B7
:1034F00008BFCCF804A0013BC2F818B0CCF80030EB
:10350000D2F82CC0BCF1000F13D0D2E908A3DCF82C
:103510000470CAF80830536A7745C3F804A008BF9E
:10352000CCF80430DCF80030C2F82CB0013BCCF809
:103530000030136BD8F800C003EB830E634504EB37
:103540008E0A88BFC8F80030DAF804309F68D3606C
:1035500017619F687960996054F82E30C2F818A0FE
:10356000013344F82E30FFF7C1FB33681B68002B92
:1035700044D03368DB68DA68936802F108019D4241
:1035800002F11C0EA6D2C9F8003034E76B681B6B41
:1035900003EB830354F82330012B16D94FF050432B
:1035A000264A1E6812683346002A3FF450AF0124B1
:1035B00039E71B68DFF88890DB681B68C9F80030C2
:1035C00014E71B6800241E462DE74FF050431B4AAA
:1035D0001B6814681E46FCB95368002B7FF438AF93
:1035E0002046BDE8F88F0121144A116074B91C46C9
:1035F000124A5368002BF3D02AE70A4C4FF0FF33EE
:10360000C9F80030F7E60D4A53603BE71C4622E755
:10361000344637E70123E9E7002404E700220420C9
:10362000D02204203C1F0020201F002084220420E0
:103630002C1F0020341F002078220420DC220420CC
:1036400074220420082204202DE9F84F4FF0504343
:103650000546DFF8ACB21A68DBE8CF3F0121002B4A
:1036600001D1CBE8431FBFF35F8FDFF89892002BA7
:1036700053D153000122DFF890824B4488F8012097
:103680005A704FF0504399481A68D0E8CF3F012153
:10369000002B01D1C0E8431FBFF35F8F83B119F83E
:1036A0001230002B40F0B7809048D0E8CF1F0123A4
:1036B0000029FAD1C0E8413F0029F6D1BFF35F8F5E
:1036C000012388F8003009F81230894B1B68002B61
:1036D00035D001214FF05043864A42F825101A6830
:1036E00098F80030013BDBB288F8003023B909F8C4
:1036F00012307E4AC2E88F3F4FF0504298F80130B6
:103700001268013BDBB288F8013023B909EB4202B1
:103710005370CBE88F3FBDE8F88F530009EB4202AE
:103720005278002A6ED1DBE8CF1F01220029FAD19E
:10373000CBE8412F0029F6D1BFF35F8F9AE76D4A9E
:103740006D4EDFF8C8A142F82530DAF8007056F85F
:1037500025306A499A6956F825301B6B03EB8303C1
:1037600001EB83039A425DD00120644B07EB870194
:1037700003EB81010B6802460831A84063B922B10E
:10378000DAF80030013BCAF800305FB351F81C3C56
:103790001439013F002BF2D04B688B4218BFBC4656
:1037A00007D12BE056F82540A24221D05B688B421E
:1037B00023D0DA68946B671CF4D157683842F5D08F
:1037C00056F825309C6356F82510956346F8252059
:1037D00041B1086B494F8B6900EB800207EB820215
:1037E000934232D04FF050431A6856F8223077E7B0
:1037F00054682042DAD09563F4E76746002FF1D091
:103800000022C3E7DFF8008198F801300133DBB212
:1038100088F8013035E798F800300133DBB288F8DA
:10382000003052E756F825000830FEF7BDFE56F886
:10383000253056F82510186B304B00EB800003EB59
:1038400080000831FEF788FE8EE7CA6B4B68D1070F
:1038500023FA05F248BF00F1FF30D20704D556F82D
:103860002520526823EA02039F0703F0030112D5C3
:1038700072687168126BC96BCD0700D5013A82423C
:1038800003F0010107DA73689B6B002B03DB73689D
:103890009B6B012B42DDCB07A4D5336832681B6BD1
:1038A000D26BD10748BF03F1FF33834207DA336895
:1038B0009B6B002B03DB33689B6B012B35DD621C9C
:1038C00090D04FF050452A68A24221D056F82430BB
:1038D0009B6B023389D02046FEF7B2FC6FF00102E9
:1038E00056F824309A632A687FE700BF76160020D6
:1038F00000220420DC220420201F00203C1F002086
:1039000077160020D0210420D4210420082204208E
:1039100001230A4A42F824302A6866E7074B5B68AD
:10392000002BB8D139B90124CBE7044B1B68002B1D
:10393000C5D11C46C5E710460124AEE7DC220420B1
:1039400070B50C460546FEF7AFFC4FF05042084BF1
:10395000126853F82260FEF7B3FC284606F11C01FA
:10396000FEF70AFE2046BDE870400121FFF77EBC4D
:10397000201F00202DE9F8434FF050460F46044623
:103980009046234DFEF790FC336847F0004755F80A
:103990002390FEF795FCC9F81C706768FEF784FC5D
:1039A000336855F82390FEF78BFCC9F82070FEF7BA
:1039B0007BFC336855F82390FEF782FCBB68C9F89E
:1039C0002430FEF771FC336855F82390FEF778FC3D
:1039D000BA6809F11C035360FEF766FC336855F8BA
:1039E0002390FEF76DFC09F11C03BB60FEF75CFC45
:1039F000336855F82350FEF763FC236840460133D3
:103A0000EC6201212360BDE8F843FFF72FBC00BF43
:103A1000201F00202DE9F0474FF05046044617467E
:103A20008946D0F80480214DFEF73EFC336855F8F6
:103A300023A0FEF745FCCAF82080FEF735FC33686A
:103A400055F823A0FEF73CFCD8F80830CAF824301B
:103A5000FEF72AFC336855F823A0FEF731FCD8F8AE
:103A600008200AF11C035360FEF71EFC336855F86A
:103A700023A0FEF725FC0AF11C03C8F80830FEF766
:103A800013FC336855F82350FEF71AFC2368002F07
:103A900003F10103EC62394608BF4846236018BFB2
:103AA0004FF0FF30BDE8F047FFF7E0BB201F0020DC
:103AB00070B50025C368D868C36AD0E90842A2601F
:103AC00054605C6800F11C018C42264C08BF5A60AF
:103AD0001A682468013AC5621A60002C34D1D0E912
:103AE000032183699160016900F108054A605A6801
:103AF000AA421A6808BF59601B49013A1A60036B51
:103B00000A68934288BF0B60184903EB83034FEAAE
:103B1000830C01EB83035A689468C260046151F816
:103B20000C409668013475609560836141F80C40E3
:103B3000FFF7DCF84FF050420D4B126853F82200AB
:103B4000003818BF012070BD0A4B5A689468C0E95C
:103B50000824946861601C6891600134C3621C6031
:103B6000E6E700BF00220420082204203C1F0020BA
:103B7000DC22042088220420034A044B12681B68BC
:103B8000C0E90023704700BF78220420D02204201F
:103B90004FF050420121024B126843F82210704747
:103BA000DC22042010B5FEF77FFB4FF05042044B9F
:103BB000126853F82240FEF783FB204610BD00BF79
:103BC000201F002058B1C36D016B826D013B9142F3
:103BD00070B50446C36500D01BB1002070BD002045
:103BE000704700F108052846FEF7DEFCA36D224A67
:103BF000C3F12001E161116823638B421F4988BF33
:103C0000136003EB83034FEA830C01EB83035A68D1
:103C10009068E2602061966851F80C0075609560CC
:103C2000A361A36B0130002B41F80C0002DBA36BF6
:103C3000012B01DD012070BD4FF05043A26B1B68CA
:103C40009A4211D0A36B0E4D55F823309B6B023373
:103C5000F0D0A06BFEF7F4FA6FF00102A36B012025
:103C600055F823309A6370BD0123A16B054A1846AD
:103C700042F8213070BD00BF082204203C1F002004
:103C8000201F0020DC2204204FF05043054A1B680F
:103C900052F8232022B10121034A42F82310704731
:103CA000FEF72AB9D8210420DC22042038B5FEF71B
:103CB000FBFA3E4B1B6893B14FF050433C4A1B68E4
:103CC00052F82310A1B14FF0504052F823100131A7
:103CD00042F82310036852F82330012B00D038BD7E
:103CE000344B1B68002BFAD1BDE83840FFF7AAB867
:103CF0003149D1E8CF0F0124002801D1C1E8404F5C
:103D0000BFF35F8F002831D12C484FEA430C0123C9
:103D10002B4984444B708CF801304FF0504C294BA8
:103D2000DCF80040D3E8CF5F5FF0010E002D01D139
:103D3000C3E845EFBFF35F8F85B110F81450002D35
:103D400027D1D3E8CFCF0125BCF1000FF9D1C3E8CB
:103D50004C5FBCF1000FF4D1BFF35F8F01234FF034
:103D600050450B7000F814302B68ACE713484FEA4D
:103D7000430C00EB43035B7893B9D1E8CF4F0123A9
:103D8000002CFAD1C1E8443F002CF6D1BFF35F8F7D
:103D9000BDE70B780133DBB20B70DCF8003092E743
:103DA00007494B780133DBB24B70B6E79C22042005
:103DB000D82104200022042077160020D0210420DE
:103DC000D4210420761600202DE9F0410546FFF7A6
:103DD0006DFF2E4A2E4F1368013313603B685BB3AF
:103DE0002C4E2D4B05F1080C1A6801322A651A6019
:103DF0002A4A2B6B11688B4288BF136003EB830345
:103E0000980006EB83035A683C689168EA60296170
:103E1000315801F1010E9168C1F804C0C2F808C020
:103E2000AB6146F800E064BB3B681BB1BDE8F04104
:103E3000FEF7C2BFBDE8F0811368164E012BD0D14A
:103E4000344606F5207820461434FEF775FBA0456D
:103E5000F9D1DFF86480124C4046FEF76DFB204636
:103E6000FEF76AFB0F48FEF767FB0F48FEF764FB9F
:103E70000E48FEF761FB0E4BC3F800800D4B1C6033
:103E8000AFE72846FEF732FFCEE700BFF821042057
:103E90009C2204203C1F002004220420082204202D
:103EA0004822042088220420BC220420A8220420C6
:103EB0002C1F0020341F0020342204202DE9F84359
:103EC0009600804630460D469946FDF76DFE002867
:103ED00000F0A48007467C20FDF766FE044600281B
:103EE00000F0A0807C22002105F00CFB3246384611
:103EF000A521676305F006FB636B043E1E4426F0B4
:103F00000706002D56D02B7884F840302B78002BF4
:103F10004DD06B7884F841306B78002B47D0AB786C
:103F200084F84230AB78002B41D0EB7884F84330F2
:103F3000EB78002B3BD02B7984F844302B79002B85
:103F400035D06B7984F845306B79002B2FD0AB7965
:103F500084F84630AB7953B3EB7984F84730EB798A
:103F60002BB32B7A84F848302B7A03B36B7A84F81E
:103F700049306B7ADBB1AB7A84F84A30AB7AB3B1B3
:103F8000EB7A84F84B30EB7A8BB12B7B84F84C3096
:103F90002B7B63B16B7B84F84D306B7B3BB1AB7B90
:103FA00084F84E30AB7B13B1EB7B84F84F300023A9
:103FB00084F84F30089D04F108001F2D28BF1F25ED
:103FC0002563A565FEF7C4FAC5F1200504F11C00C0
:103FD000FEF7BEFA4B4642463046616B6461E561CE
:103FE000A462FDF7ABFF4FF0FF32124B2060984503
:103FF000A2630ED0104B98450BD0099B03B11C60F7
:104000004FF0FF3320466360FFF7DEFE0120BDE87E
:10401000F883E36B43F00103E363EEE74FF0FF3017
:10402000BDE8F8833846FDF743FE4FF0FF30BDE8AA
:10403000F88300BF51320010CD2C00102DE9F84359
:104040009600804630460D469946FDF7ADFD0028A6
:1040500000F0A38007467C20FDF7A6FD044600285B
:1040600000F09F807C22002105F04CFA3246384651
:10407000A521676305F046FA636B043E1E4426F0F3
:104080000706002D56D02B7884F840302B78002B73
:104090004DD06B7884F841306B78002B47D0AB78EB
:1040A00084F84230AB78002B41D0EB7884F8433071
:1040B000EB78002B3BD02B7984F844302B79002B04
:1040C00035D06B7984F845306B79002B2FD0AB79E4
:1040D00084F84630AB7953B3EB7984F84730EB7909
:1040E0002BB32B7A84F848302B7A03B36B7A84F89D
:1040F00049306B7ADBB1AB7A84F84A30AB7AB3B132
:10410000EB7A84F84B30EB7A8BB12B7B84F84C3014
:104110002B7B63B16B7B84F84D306B7B3BB1AB7B0E
:1041200084F84E30AB7B13B1EB7B84F84F30002327
:1041300084F84F30089D04F108001F2D28BF1F256B
:104140002563A565FEF704FAC5F1200504F11C00FE
:10415000FEF7FEF94B4642463046616B6461E5610D
:10416000A462FDF7EBFE4FF0FF32114B2060984543
:10417000A2630DD00F4B98450AD00A9B03B11C6077
:10418000099B20466360FFF71FFE0120BDE8F8830E
:10419000E36B43F00103E363EFE74FF0FF30BDE86B
:1041A000F8833846FDF784FD4FF0FF30BDE8F88313
:1041B00051320010CD2C00102DE9F84F4FF4006063
:1041C0000026FDF7F1FCDFF820810546444FDFF8BB
:1041D000309106F1300A00285ED07C20FDF7E4FC27
:1041E0000446002860D04FF0000B7C22594605F0B1
:1041F00089F94FF40062A5212846656305F082F92C
:10420000606B384B00F2FC70236420F0070584F8E3
:1042100044A004F1080084F845B084F84FB0C4F815
:1042200030B0C4F858B0FEF793F904F11C00FEF763
:104230008FF920225B46E26128464246616B646149
:10424000A462FDF77BFE4FF0FF33A363264B206093
:10425000984524D0C84522D04FF0FF333C6020461B
:104260006360FFF7B1FD012457F8043B1F4A9E63CA
:10427000C84642F826302EB1012C1BD01C4B1B68BF
:10428000BDE8F88F4FF400600126FDF78DFC06F1C4
:10429000300A05460028A0D14FF0FF34E4E7E36B75
:1042A00043F00103E363D7E72846FDF701FD4FF034
:1042B000FF34D9E700F05CFC0128DFD1FDF7F4FF03
:1042C0004FF0FF3500220B4B0B480C4905600C608A
:1042D0001A60FDF771FE064B1B68BDE8F88F00BF42
:1042E0006422042049444C4551320010201F002014
:1042F00070120020D0220420742204209C2204206A
:10430000CD2C00102DE9F04383B0FFF7CFFC4FF028
:1043100050404B4A4B4913680468013B13604B788B
:104320000068013BDBB24B7033B9474901EB4001F8
:104330004B704649C1E88F3F1768002F70D1444B3E
:104340001868002862D0434E3368002B49D0DFF84C
:104350001CC1414DF368DB68DA6AD3E90810886054
:104360004160516803F11C0E7145116808BF50602F
:104370000139DF621160996903F1080ED1F80480F8
:10438000D3E90302F0458260506008BF4A601A6BAF
:10439000DCF8009002EB820808684A4505EB8809C2
:1043A00088BFCCF80020D9F8042001380860906854
:1043B00055F8281018619068DA60C0F804E0306899
:1043C0000131C2F808E0C3F8189045F82810002819
:1043D000C0D1224B1A6812685ABB4FF0FF32204BF3
:1043E0001A60DFF88C80D8F80050DDB101271D4E2F
:1043F000FEF7EEFF08B146F82470013DF8D1C8F889
:10440000005056F82400003818BF0120164B1B68D6
:104410001BB10190FEF7D0FC019803B0BDE8F0831A
:104420000020F3E70F4E56F82400003818BF012093
:10443000ECE71A680A4BD26812681A60D1E700BF2D
:1044400000220420D4210420D0210420771600204B
:10445000F8210420882204203C1F00202C1F00206B
:1044600074220420DC2204209C2204200822042040
:1044700084220420024B186800B97047FFF742BF3E
:104480009C22042010B582B038B1154C2368DBB9EA
:104490000021FEF7EBFE23688BB94FF05043114A21
:1044A0001B6852F823202AB101210F4A42F8231039
:1044B00002B010BD02B0BDE81040FDF71DBDFFF712
:1044C00021FF0028E9D0F3E70190FEF76BFD002102
:1044D0000198FEF7CBFE2368002BDED0EFE700BF8C
:1044E0009C220420D8210420DC220420F8B5D0E945
:1044F0000125002741F00041C4680369016095600F
:10450000816804F108054A605A6882421A6808BF47
:104510005960013AD4E9031607611A60A3698E60F5
:10452000226951605968A94208BF5A601A68134944
:10453000013A1A600A68236B934288BF0B601049E6
:1045400003EB8303980001EB83035A689668E260EB
:1045500026619668756095600A58A36101320A5019
:10456000FFF7A4FB2046FEF7C1FB064B1B681BB1FF
:10457000BDE8F840FEF720BCF8BD00BF08220420CB
:104580003C1F00209C2204202DE9F84F04464FF0E8
:10459000504A234D0E46234FFFF788FBD5F8009075
:1045A000D4F80480FDF780FEDAF8003057F823B025
:1045B000FDF786FE9BF8790028BB33685A1C0BD0A8
:1045C000194A2168106881420FD0616849450CD8AA
:1045D00000230125336000E00546144B1B680BB136
:1045E000FEF7EAFB2846BDE8F88FA9EB08018B42ED
:1045F000EED91168A3EB09032A6843443360002510
:10460000C4E90012E9E7FDF74FFEDAF800300125B2
:1046100057F82340FDF754FE002384F87930DCE797
:10462000D0220420201F0020782204209C22042075
:104630001F4B186800B9704770B5FDF735FE4FF095
:1046400050421C4C136854F8231029B154F823200D
:10465000013244F8232070BD1749D1E8CF5F01260D
:10466000002D01D1C1E8456FBFF35F8F4DB9134DE8
:10467000012213490A7005F813204FF050431B68BC
:10468000E4E70E4D15F813605EB9D1E8CF6F012253
:10469000002EFAD1C1E8462F002EF6D1BFF35F8F6E
:1046A000E6E707490B780133DBB20B701368CDE7FF
:1046B0009C220420D821042076160020D02104203A
:1046C000D42104201E4B1B68002B34D04FF05041E6
:1046D0001C4B0A6853F8220000282CD053F8220003
:1046E000013843F822000A6853F822301BBB10B58A
:1046F0001549164B53F822400B78013BDBB20B7087
:104700002BB9134800F81230124AC2E88F3F4FF01D
:1047100050424B781068013BDBB24B7033B90C4A06
:104720000D4902EB40025370C1E88F3F0020FDF7B6
:10473000C7FD0CB910BD7047BDE81040FDF7DCBBEC
:104740009C220420D8210420D4210420DC2204202F
:10475000D02104207616002077160020134B1B680A
:1047600003B970474FF05041114B0A6810B453F829
:104770002240C4B153F82240013C43F822400A6869
:1047800053F822307BB90B490B78013BDBB20B703D
:104790002BB9094C094904F81230C1E88F3F5DF884
:1047A000044BFDF78DBD5DF8044B70479C2204203F
:1047B000D8210420D4210420D02104207616002002
:1047C000F8B54FF05046FDF76FFD0D4D336855F8C5
:1047D0002340FDF775FDE769FDF766FD336855F881
:1047E0002340FDF76DFD246BFDF75EFD3368C4F1DA
:1047F000200455F82350FDF763FD3846EC61F8BD01
:10480000201F00202DE9F04FA44EDFF89C82A44D1C
:1048100087B033681C68002C00F0D780DB681C6808
:10482000FEF7C2FDFEF7C8FD9E4B82461B68834221
:1048300045D89C4B8442186040F238810022286899
:10484000A4EB0A01FEF71AFAFFF714FE002800F0A5
:1048500017810023CDE90233CDE904330022286813
:1048600002A9FEF7F9F80028D3D0029B002BC0F272
:10487000A380DDF810A0DAF814301BB10AF10400AF
:10488000FDF792FEFEF798FD864B01901B6898425B
:10489000C0F0BA80029B834A0199013B1160082B4A
:1048A000DCD8DFE803F03838785C7F3838785C0093
:1048B00023F0010384F828302046236A98473368A0
:1048C0001A68002A00F09580DB68DC681F6804F134
:1048D000040B5846FDF768FE94F828305807E7D5D2
:1048E000FA43A369246107EB03099342C4F80490D7
:1048F0000BD84F46FF43236A20469847A36924619B
:104900009944BB42C4F80490F3D95946D8F8000042
:10491000FDF732FED0E79AF828400398DAF818102D
:10492000019A431844F001078AF828702CBF012728
:1049300000279342CAF80430CAF810A000F2A380FE
:10494000101A814220D8670700F1EC8024F001049E
:104950008AF828405046DAF8203098477EE70399D5
:10496000019A9AF82830881843F0010390428AF897
:104970002830CAF81810CAF80400CAF810A000F2CB
:10498000878000293FF46AAFD8F800000AF10401DB
:10499000FDF7F2FD62E79AF8283023F001038AF868
:1049A00028305BE79AF828309A0740F1B18023F06D
:1049B00001038AF8283051E7039BDDE90401984799
:1049C000029B002BFFF64AAF53E7FEF7EDFCFEF724
:1049D000F3FC344B82461B689842FFF470AF314AB7
:1049E000D8F80030C2F800A01A68B2FA82F2520970
:1049F00025E7D8F800202B493260C1F800A0C8F89C
:104A00000030FFF737FD24E73368196851B931E00A
:104A100023F0010384F82830236A2046984733683E
:104A20001A683AB3DB68DC68D3F8009004F1040B31
:104A30005846FDF7B9FD94F828305A07E8D5A36920
:104A4000246109EB03076FEA09094B4567600BD83E
:104A5000B9466FEA0909236A20469847A369246189
:104A60001F444B456760F3D95946D8F80000FDF75D
:104A700083FDD1E7D8F80010C8F80030316009E7AD
:104A8000FFF702F9E5E6904202D9002F3FF45BAF51
:104A900030680AF10401FDF76FFDDFE6281F0020F2
:104AA000D42204206C220420381F0020FFF7E2FCEF
:104AB0003368DB68DF6807F1040B5846FDF774FDC7
:104AC00097F8283059070DD423F0010387F82830D0
:104AD00038463B6A9847BCE693421DD838463B6A45
:104AE00098474C46BB69AAEB040214EB03092CBFA0
:104AF00001210021D145C7F804903F61ECD954450C
:104B000001D90029EAD059463068FDF735FDDFE7C5
:104B10005046FDF7CDF8A1E65946D8F80000FDF75C
:104B20002BFDD5E75446DDF8049006E0914218D8F5
:104B3000236A204698473B46A169CF182CBF012025
:104B40000020B945A9EB030267602461EED29945C4
:104B500001D20028ECD03068211DA246FDF70CFDE3
:104B6000F8E6D8F80000211DA246FDF705FDF1E6A4
:104B7000F0B5194C85B0FFF799F825689DB1FFF79E
:104B8000A1FD206868B14FF0FF351F2413490023B1
:104B900002914FF48062CDE9004511491148FFF7B9
:104BA0004DFA05B0F0BD104F104E3846FDF7C4FC6D
:104BB0003046FDF7C1FC0E4B2A461F600D4B1021FD
:104BC0000A201E60FDF722FE20600028D7D00A4987
:104BD000FDF7C4FFD3E700BFD4220420D82204206D
:104BE000E8990010054800100C220420202204201F
:104BF000281F0020381F0020E09900109C46F0B5C7
:104C000007460E4615466FF00104074B85B069460E
:104C1000624618680023CDE9017603950094FDF7FC
:104C2000C5FE05B0F0BD00BFD4220420F8B504468F
:104C30000D46EFF3108772B60C4B9B6853F820605B
:104C4000B14205D00A4B9E420CD30A4B9E4209D278
:104C5000064B9B6843F82450BFF35F8F87F310889F
:104C60003046F8BD00F0F6F8F2E700BF00ED00E0D6
:104C7000100100102401001003BD00BF10B5044650
:104C800000F0FEF82346BDE810401847F0B5054691
:104C900087B0192017460E46FBF770FE0021044628
:104CA0001920FBF755FE0021CDE904650397002686
:104CB000002701224FF050438C46CDE90067029255
:104CC000B9B11A6D9507FCD5596540BF1A6DD0076B
:104CD00003D420BF1A6DD207FBD59A6D8A420DD03E
:104CE0004FF0000C06AA02EB8C0252F8181CE7E702
:104CF0009A6D1A6DD607FBD440BFE2E70CF1010CA8
:104D0000BCF1050FEED92146192007B0BDE8F040EF
:104D1000FBF71EBE0B4B0C4A10B49A4288BF4FF0F3
:104D2000FF330A4C0A4A03F2F4719268C3F8F4079D
:104D3000C3F8FC4707485DF8044BC3F8F837FFF7A2
:104D4000A5BF00BF00080820000008207D4C00100F
:104D500000ED00E0794C0010F8B504463A4E0F46DD
:104D6000FBF704FDB378327803F0010196F90030C7
:104D7000DB0F43EA4103234253D096F90110CB0FD6
:104D8000C2F3801141EA4301214273784CD0C3F34E
:104D90008011C2F3401545EA4101214247D0C3F3D7
:104DA0004011C2F3001545EA4101214242D0C3F34C
:104DB0000011C2F3C00545EA410121423DD0C3F3D1
:104DC000C001C2F3800545EA4101214215D0C3F379
:104DD0008001C2F3400545EA410121421CD003F0A5
:104DE000020302F001051D43254018D047BB6FF0B8
:104DF0000805FBF7CDFC2846F8BD02250423E10792
:104E000044BF1A433270A207F3D57278134373700C
:104E1000FBF7BEFC2846F8BD01250223EFE701237E
:104E2000EDE707258023EAE706254023E7E7052588
:104E30002023E4E704251023E1E703250823DEE728
:104E40000248FBF77BFC00BFDC1A0020F099001041
:104E5000704700BF08B50148FBF770FC049A0010CA
:104E600038B5054C054DAC4204D254F8043B984784
:104E7000AC42FAD338BD00BFC896001008970010A6
:104E800038B5054C054DAC4204D254F8043B984764
:104E9000AC42FAD338BD00BFF4960010089700105A
:104EA00010B40748074C084B084A094904601A60C7
:104EB0008B6832EA0303FBD15DF8044B704700BFF7
:104EC000002002407F3BEFEF00300240F6FFF3038B
:104ED00000000240044BDB6CB3F5004F03D14FF4EC
:104EE0008022024BDA6470470000115000201150FC
:104EF0004FF0E022044BD2F8881D0B43C2F8883DE6
:104F000010EE3004704700BF030330006FF06041C3
:104F1000044B054A19609368DB4333F06043FAD1D0
:104F2000704700BF003002400000024010B545F25B
:104F30005320FCF7EFFDBDE810400346042018475E
:104F400010B545F25320FCF7E5FDBDE810400346DF
:104F500001201847FBF7D0BC70B52E492E4C2F4EC0
:104F6000641AA510442D2A4628BF442230469200D8
:104F700004F052FAB4F5867F47D805F1010CBCF174
:104F8000440FC5F143013444C5F1440088BF0120FA
:104F900005296346224AC4F3800418D9BCF1440FA2
:104FA00015D8ACB346F82520001B2C4406EB84032F
:104FB000410803EBC101C3E9002208339942FAD149
:104FC00020F0010398420CEB03051ED06B1C442B10
:104FD00046F8252019D0422D46F8232005F102037A
:104FE00013D0412D46F8232005F103030DD0402DA9
:104FF00046F8232005F1040307D03F2D46F823206F
:1050000005F1050301D046F82320064B9E6070BDD4
:10501000AC46C9E70000001010010010000000209D
:105020001101001000ED00E00023F0B52B4C83B01F
:10503000C4F88430FCF7A0FD0122294BDA63636CCD
:10504000012BFCD10321264A244B11639D6B012DBA
:10505000FCD1052302271E4600242946214A224866
:105060000097FCF79BFC29463346204A20480096CF
:10507000FCF794FC3946224604201E4BFCF720FC2A
:105080002946224630461C4BFCF71AFC22460820D3
:1050900021461A4BFCF714FC224609202146174BE7
:1050A000FCF70EFC224606202146134BFCF708FCB9
:1050B000114B224607202146FCF702FC0420FCF796
:1050C00067FC0F4DA5FB0035AD0CE0B2294601345D
:1050D000FCF7F8FC062CF8D103B0F0BD000001404D
:1050E00000300140002F685900000540008C8647C1
:1050F00000800540001BB70080D1F008006CDC0286
:1051000083DE1B4386B003B451FC0804CDE90201E1
:1051100051FC0904CDE9040151EC0A04CDE9060172
:1051200003BCF047BDE800504EEC00C4BDE80050A1
:105130004EEC01C4BDE800504EEC02C400BD0000BE
:1051400000B5FFF7DFFF02E010FE30F4F8D441ECC9
:10515000100443EC112400EE010410EE010480EE73
:10516000200451EC1004704700B5FFF7CBFF02E0BC
:1051700010FE30F4F8D441EC100443EC112400EE9E
:10518000010410EE210480EE200451EC300470473D
:1051900000B5FFF7B7FF02E010FE30F4F8D410B509
:1051A00041EC100443EC112451EC040453EC0524AD
:1051B000A0FB024C5FF0000EE0FB03CEE1FB02CE51
:1051C0004CEC20440024E1FB03E444EC30E480EEAA
:1051D000200451EC5004BDE81040704700B5FFF7C3
:1051E00091FF02E010FE30F4F8D441EC100443ECDF
:1051F000112451EC2104A0FB01126FEA820252FB40
:10520000100052FB12F252FB1000A0EBD07C53ECCA
:1052100004245CFB13F153EC1524A1FB022001FBD9
:10522000030053EC4424A2EB000050FB1CF24FEAB5
:10523000111312EB017043EBE27140EA515020EA86
:10524000915020F0070053EC7524A0FB023C53EC76
:10525000752400FB03CC01FB02CC53EC0424ACEB23
:10526000824C40EA5C70A0F1010041EC400480EE09
:10527000200451EC7004704700B5FFF743FF02E0D3
:1052800010FE30F4F8D440EC700400EE010410EE8F
:10529000210480EE200451EC3004704700B5FFF784
:1052A00031FF02E010FE30F4F8D440EC600400EE70
:1052B000010410EE210480EE200451EC300470470C
:1052C00000B5FFF71FFF02E010FE30F4F8D441EC08
:1052D000800400EE010410EE010480EE400410EEA4
:1052E0001304704700B5FFF70DFF02E010FE30F425
:1052F000F8D441EC800400EE010410EE010480EECD
:10530000400410EE3304704700B5FFF7FBFE02E0E7
:1053100010FE30F4F8D441EC100443EC112400EEFC
:10532000010410EE3004C0F30070704700B5FFF7C1
:10533000E9FE02E010FE30F4F8D443EC102441EC16
:10534000110400EE010410EE30F48CBF01200020A7
:10535000704700BF00B5FFF7D5FE02E010FE30F445
:10536000F8D443EC102441EC110400EE010410EEDB
:1053700030F42CBF01200020704700BF00B5FFF7BC
:10538000C1FE02E010FE30F4F8D441EC100443EC0E
:10539000112400EE010410EE30F42CBF0120002097
:1053A000704700BF00B5FFF7ADFE02E010FE30F41D
:1053B000F8D441EC100443EC112400EE010410EE8B
:1053C00030F48CBF01200020704700BF704700BF41
:1053D0002DE9F84F9A460D9B17469A0706468B46CD
:1053E000DDF8288011D1DDE90B3293420DD213464E
:1053F0003C460B9A9D1A3D4422465346594620206E
:105400000134B047AC42F7D100E03D460B9B73B18D
:1054100008EB030404EB0509A9EB040214F8010DE1
:1054200053465946B0474445F6D10B9B1D440D9B4E
:105430009B070ED50C9BEF1BBB420AD91C462A4684
:105440005346594620200137B047BC4205F10105BB
:10545000F5D82846BDE8F88F2DE9F04F0F9EDDF80E
:1054600024E016F0020F0A9C9DF82C900E9DDDE9B9
:105470000C872CD1002D74D1BC4206F0010B80F0BA
:10548000CB801F2C88BF202400F2C68004F1FF3C93
:105490004FF0300AF44401E0202C04D00134A7423C
:1054A0000CF801AFF8D8BBF1000F10D0A5420ED90F
:1054B000202C2DD004F1FF3C4FF0300AF44401E0E1
:1054C000202C25D00134AC420CF801AFF8D116F0F5
:1054D000100F38D016F4806F26D10CBBB8F1100F26
:1054E0007FD0B8F1020F00F0928030248EF8004097
:1054F0000124B9F1000F2BD02D270EF804700134D0
:10550000CDE90B56CDE909E4BDE8F04FFFF760BFE8
:1055100016F0100F4FF02004F2D016F4806F03D174
:10552000A74249D0A54247D0B8F1100F4ED0B8F1EC
:10553000020F39D0202CE3D04FF0300C0EEB0407D3
:1055400087F800C00134202CDAD0B9F1000FD3D194
:1055500077071DD43707D3D520270EF80470013400
:10556000CEE716F0010B0DD0B9F1000F22D116F0E5
:105570000C0F1FD1BC4299D21F2C87D9202DC7D820
:105580002024A4E7BC42A2D21F2C7FF67FAFF7E70E
:105590002B270EF804700134CDE90B56CDE909E450
:1055A000BDE8F04FFFF714BF202CA9D00EEB040785
:1055B000013440E0013DDDE7671E8FD0B8F1100FE8
:1055C0002FD0B8F1020F35D03C46B5E7B7060FD45F
:1055D000202C95D00EEB040C013478278CF8007049
:1055E000A8E7B4060ED478248EF800400124A3E77F
:1055F000202C85D04FF0580C0EEB040787F800C024
:10560000013497E758248EF80040012494E762247F
:105610008EF8004001248FE7BBF1000F08BF002582
:1056200055E716F0200FA4F10204E3D10EEB040CB1
:105630003C46D2E777444FF0620C87F800C079E728
:1056400000B9704701F060BA10B1D1E900311847D4
:10565000704700BF000000002DE9F04F2DED048BD6
:105660009BB02A9CDDE9288909942B9C83461D4622
:105670000D940C920C4642464B4640464946DDF896
:10568000B0A0FFF745FE002840F0D68040464946CE
:105690004FF0FF32744BFFF789FE002840F0CC80BA
:1056A000404649464FF0FF326FF48013FFF742FE49
:1056B000002840F0C1804046494600220023FFF701
:1056C00039FE002840F0C181CDE90A89DDE90A23CD
:1056D0001F461AF4806316461193099B08BF0623E0
:1056E000099356EA070340F0C3801AF4006E00F0F5
:1056F000A4819FED5B7B00238DED0E7B1093099BB6
:10570000109A00269342D2BF0023A3EB020E0EF1A3
:10571000FF3309934AF4806A10960D9BB34294BFFD
:1057200000279F1B1AF00203119302D0002E18BF0E
:105730000027109B3BB1DDE90A01DDE90E23FFF7ED
:1057400051FDCDE90A014046494600220023FFF7FA
:10575000F1FD30B1DDE90A01024601F10043CDE976
:105760000A239DED0A7B099B8DED007B02932AF4B1
:105770000063049321462B4658460C9A039700F089
:105780009BF98046002E51D01AF0200F424614BFDC
:10579000452065202B462146D847109A0DF1480C2C
:1057A00082EAE273A3EBE2734FEAD27E00276246FD
:1057B0001846DFF8B89008F1010806F1FF3A01E059
:1057C000202F0FD00646A9FB0031C90801EB810349
:1057D000A0EB43033033092E084607F1010702F816
:1057E000013BEDD80523002006930A234246CDE96C
:1057F000033021462B465846CDE9017ECDF814A052
:10580000CDF800C0FFF728FE119B804673B10C9BBA
:105810000D9FC61AB74209D942462B462146202081
:105820000136D847B74208F10108F5D840461BB009
:10583000BDEC048BBDE8F08F0D9B21462B935846A1
:105840002B46099C0C9ACDE92889CDF8B0A02A9462
:105850001BB0BDEC048BBDE8F04F00F02DB900BFCC
:105860000000000000000000FFFFEF7FCDCCCCCC9B
:10587000C7F30A50A0F2FF30FFF702FD8AA3D3E975
:105880000023FFF789FC8AA3D3E90023FFF75CFC20
:10589000C7F3130341EC180B43F07F51304600224D
:1058A0007B4B41F44011FFF763FC6BA3D3E900236A
:1058B000FFF772FC02460B4651EC180BFFF744FC55
:1058C000FFF702FD1090FFF7DBFC65A3D3E900238F
:1058D00006460F46FFF760FC00226E4BFFF734FCD4
:1058E000FFF7F2FC0346394630460E935EA3D3E938
:1058F0000023FFF751FC06460E980F46FFF7C0FC49
:105900005BA3D3E90023FFF747FC02460B46304672
:105910003946FFF72DFC02460B4606460F46FFF7B9
:105920003BFC324641EC180B3B4630463946FFF70C
:105930000BFC002241EC190B574B51EC180BFFF7F5
:1059400051FC0022554BFFF7FFFB02460B4651EC82
:10595000180BFFF747FC0022514BFFF7F5FB0246FF
:105960000B4651EC180BFFF73DFC32463B46064612
:105970000F4600204FF08041FFF7FAFB02460B462E
:1059800030463946FFF7E0FB02460B4651EC190B57
:10599000FFF728FC0022434BFFF7D6FB0E9B0022AB
:1059A00003F2FF363305FFF7F7FB06460F46DDE946
:1059B0000A0132463B46CDE90E67FFF7BBFC60BBF0
:1059C00031463A46109B6333C72B34BF0426052665
:1059D0001AF4006F3FF4A1AE51EA02033FF48FAE18
:1059E000DDE90A0124A3D3E90023FFF7CBFC48B18A
:1059F000DDE90A0122A3D3E90023FFF79BFC00287D
:105A00007FF47DAE099B002B3FF487AE119A002AEC
:105A10003FF483AE013B09937FE6109B0022013BDC
:105A2000109330461D4B3946FFF7DCFB0B46024610
:105A30000146CDE90E231A46C4E79FED137B0426E9
:105A40008DED0E7BCDF840E067E609F10043CDF81F
:105A500028800B933AE600BF61436F63A787D23F6C
:105A600071A379094F930A401655B5BBB16B02403B
:105A7000EF39FAFE422EE63F2D431CEBE2361A3F89
:105A80000000000080842E410000000000000000A3
:105A90000000F83F0000E03F00002C4000002440E0
:105AA000000018400000F03FFB799F501344D33FA3
:105AB000B3C8608B288AC63F2DE9F04F2DED028BCD
:105AC00095B0DDE922450695249DDDE92067CDE905
:105AD0000701CDE90923304632463B463946059554
