:020000041000EA
:10000000002008205D0100101B0100101D010010E0
:100010001101001011010010110100101101001058
:100020001901001019010010190100101F01001022
:10003000110100101901001021010010230100100E
:100040001101001011010010110100101101001028
:100050001101001011010010110100101101001018
:100060001101001011010010110100101101001008
:1000700011010010110100101101001011010010F8
:1000800011010010110100101101001011010010E8
:1000900011010010110100101101001011010010D8
:1000A00011010010110100101101001011010010C8
:1000B00011010010110100101101001011010010B8
:1000C00011010010110100101101001011010010A8
:1000D0001101001011010010110100101101001098
:1000E0001101001011010010110100101101001088
:1000F0001101001011010010110100101101001078
:100100001101001011010010110100101101001067
:10011000EFF30580103800BE00BE00BE00BE00BE7A
:1001200000BE00BEF2EB887160A3001084A3001033
:10013000A001001090A31AE7D3DEFFFF42012110B7
:10014000FF010000F8B30000793512AB4FF000005A
:100150001E49086006C881F3088810474FF05040D8
:10016000006810B14FF00000F2E70DA40ECC00299A
:1001700002D000F012F8F9E71549164A002000E015
:1001800001C19142FCD11449884714498847144958
:10019000884700BEFDE701C901C29A42FBD3704700
:1001A00084A3001010010020BC12002030B5001004
:1001B000000008200000082030B5001000100820C2
:1001C00000100820000000007047000008ED00E06B
:1001D000BC120020BCA00020E56E00109D020010A3
:1001E000DD6E0010F8B500BF10B5054C237833B9AB
:1001F000044B13B1044800E000BF0123237010BD7D
:1002000088140020000000003C9D001008B5034B3E
:100210001BB10349034800E000BF08BD0000000017
:100220008C1400203C9D0010084B9A6912F01002BB
:10023000FBD11B680649DBB2AA2B0B7000D07047BC
:10024000044B1021586802F0A1BA00BF000007401B
:10025000B3A00020B014002038B5002204211020E3
:1002600002F00CFC094D0A4C286002F0F3F9034639
:100270000120236002F0D2FC064B074A2D6821685A
:100280001060C3E90051986038BD00BFAC14002075
:10029000A4140020B0140020A814002030B583B0AE
:1002A00006F044FF3249334801F08EFB032105205C
:1002B00000F080FA0321042000F07CFA2E4D002289
:1002C0000121042000F094FA00220121052000F011
:1002D0008FFA4FF4E131284601F020FD2120274913
:1002E00000F010FC0121212000F0C8FB0020502369
:1002F0000446AB636B6B224A03F0380313600221A0
:1003000000F058FA0221012000F054FA062000F013
:1003100089FA22460121062000F06AFA062344ECFD
:100320004430022500F03AF9FFF796FF00950325C7
:100330004FF40072134B14490194144804F0BEF8B2
:10034000009504254FF480620E4B11490194114829
:1003500004F0B4F84FF480620A4B0F490194009501
:100360000E4804F0ABF804F027FA204603B030BD85
:10037000801A0600641200200000074029020010C5
:1003800034100740B0140020409D0010A10300105D
:100390004C9D0010F5030010549D00104504001002
:1003A00070B54FF050460546746814F040041DD1F6
:1003B0004FF0FF31A86802F041FD00F0D1F80220B3
:1003C00000F0AEF801460139C9B2042000F08AF805
:1003D000234622462146A86802F090FB0121686866
:1003E00002F0A0F9746814F04004E1D00A2004F08F
:1003F00049FBD9E770B5054684B01048FA26104C81
:1004000006F0D4FE4FF0FF3202A9286802F094FCF7
:10041000012368681A461021009602F029F9029B10
:10042000C2060393EED503AAA3699B06FCD412F877
:10043000013B236004AB9A42F6D1E3E76C9D0010C8
:10044000000007400523F0B5044687B02248012785
:10045000224E8DF80F3006F0A9FEFA2501236068C0
:100460001A461946009502F003F9C307F6D5002590
:100470004FF0FF31A06802F0E1FC012357210DF19C
:100480000F023046009701F0C5FA04235721304689
:1004900004AA009501F0C6FAC0B2042818D1BDF82C
:1004A00010E0BDF812C09EFA9EFE9CFA9CFC2B4602
:1004B0006422206805A9ADF816E0ADF814C002F07A
:1004C0001DFB0023A0681A46194602F017FBC4E77B
:1004D000034806F06BFEF4E7A89D001064120020AC
:1004E000E49D001030B5002584460C4685B00223FB
:1004F000572103AA009509488DF80CC08DF80D40CE
:1005000001F088FA04460A2001F08EF8E0B2A0F16A
:100510000200B0FA80F0400905B030BD641200203E
:10052000012330B5844600240C4D85B00DF10E0238
:100530000093572128468DF80EC08DF80F4001F02A
:1005400069FA01235721284600940DF10F0201F0AA
:1005500069FA9DF80F0005B030BD00BF641200209D
:10056000012330B500240C4D85B00DF10E0200932F
:10057000572128468DF80E408DF80F4001F04AFAB9
:1005800001235721284600940DF10F0201F04AFA89
:100590009DF80F0005B030BD64120020012330B576
:1005A000002444F2060585B057210DF10B0200939B
:1005B00076488DF80B408DF80C4001F02BFA0123A2
:1005C00003AA57210094714801F02CFA2146704883
:1005D00006F06AFE02235721009403AA6B48ADF887
:1005E0000C5001F017FA04460A20E4B201F01CF89E
:1005F000022C00F08C804FF050435C6814F04004F3
:1006000000F09280002540F206340223572103AA0D
:100610005E480095ADF80C4001F0FCF904460A2054
:10062000E4B201F001F8022C00F0AC80002540F2A9
:1006300007740223572103AA54480095ADF80C40D3
:1006400001F0E8F904460A20E4B200F0EDFF022CC4
:1006500000F09480002548F609040223572103AADC
:100660004A480095ADF80C4001F0D4F904460A2040
:10067000E4B200F0D9FF022C7CD0002402235721E1
:1006800003AA00944148ADF80C3001F0C3F90446C8
:100690000A20E4B200F0C8FF022C67D00025032432
:1006A0000223572103AA39480095ADF80C4001F008
:1006B000B1F904460A20E4B200F0B6FF022C51D092
:1006C00000240A250223572103AA00942F48ADF8DD
:1006D0000C5001F09FF904462846E4B200F0A4FF54
:1006E000022C3BD0002542F201040223572103AA29
:1006F00026480095ADF80C4001F08CF904460A201C
:10070000E4B200F091FF022C22D005B030BD64208D
:1007100000F08AFF1F4806F049FD4FF050435C6827
:1007200014F040047FF46EAF01230DF10B0200932F
:10073000572116488DF80B408DF80C4001F06AF9EE
:100740000123572103AA0094104801F06BF959E7DF
:10075000114805B0BDE8304006F028BD0F4806F04E
:1007600025FDBFE70E4806F021FDA9E70D4806F07C
:100770001DFD93E70C4806F019FD7EE70B4806F0D7
:1007800015FD67E70A4806F011FD4FE764120020E7
:10079000089E0010249E0010109F0010E49E001080
:1007A000BC9E0010A49E0010889E00106C9E00103D
:1007B000509E001010B44FF480740C4B53F820205E
:1007C00003EB8003C00082F0400200F1804003F59B
:1007D000805C02F0C00200F5203003F54053CCF8F5
:1007E000002041601C605DF8044B704704800340AA
:1007F000002915BF0C2104214FF0080C4FF0000C0C
:10080000002A08BF6146064B53F8202003EB800303
:100810004A4003F5805302F00C021A60704700BF93
:100820000480034030B4002343EC440043EC400018
:1008300005254FF480740B4BC20053F8201003EBD6
:10084000800081F0400102F1804303F5203301F084
:10085000C00200F5805100F540500A605D60046000
:1008600030BC7047048003400FB400B583B0049CD3
:10087000074806F09BFC3CB105A92046019106F013
:1008800013FB044806F092FC012006F025FB00BF94
:10089000409F0010509F0010EFF3108072B6064B7F
:1008A000D3E8CF1F01220029FAD1C3E8412F002944
:1008B000F6D1BFF35F8F70476B1600200023034A09
:1008C000C2E88F3F80F31088704700BF6B1600208E
:1008D00070B5EFF3108572B6134CD4E8CFCF012674
:1008E000BCF1000FF9D1C4E84C6FBCF1000FF4D19A
:1008F000BFF35F8F4FF0010C4FEAD10E01F00703F9
:100900000CFA03F310F80EC01CEA030608D14CEAF7
:10091000030300F80E30C4E88F6F85F3108870BDB4
:100920001046FFF7A1FF00BF6B160020F8B5EFF3EC
:10093000108572B6234CD4E8CF7F0126002FFAD160
:10094000C4E8476F002FF6D1BFF35F8F9A4227D8D4
:100950000126D70810F807E002F0070C06FA0CFC95
:100960001EEA0C0F00EBD2070DD125E04FEAD20EA4
:1009700010F80EE002F0070C06FA0CFC1EEA0C0F51
:1009800000EBD20718D001329342EFD24FF0FF3084
:100990000023C4E88F3F85F31088984207DBF8BD39
:1009A0000023C4E88F3F85F310884FF0FF30002903
:1009B000F5D00698FFF758FF4EEA0C0C104687F862
:1009C00000C0E5E76B160020044A1078431CDBB238
:1009D000172B88BF10231370704700BF0012002030
:1009E0000146024A0248FFF773BF00BF549F001040
:1009F0007C1A002010B5054C82B001461F23182236
:100A000000940348FFF792FF02B010BD749F0010DE
:100A10007C1A00204FF0E022936843F0005393606B
:100A2000704700BF0021044B03F12002C3E88F1F71
:100A300001339342FAD17047601600204FF0E02353
:100A40004FF08032C3F80024C3F80424C3F808240C
:100A5000C3F80C24C3F81024C3F81424C3F81824D2
:100A6000C3F81C24C3F82024C3F82424C3F8282482
:100A7000C3F82C24C3F8302462B67047012300F079
:100A80001F029340400941B1800000F1604000F531
:100A90006140C0F8803103607047024A203042F85C
:100AA0002030704700E100E00123064A410952F876
:100AB000212000F01F0003FA00F0104214BF184676
:100AC0000020704700E100E001224309044900F0E2
:100AD0001F0002FA00F0403341F82300704700BFC6
:100AE00000E100E0054A10309268054B52F8200002
:100AF000C01A2F288CBF00200120704700ED00E0B5
:100B000004120020F8B50D46EFF3108772B6124EAE
:100B1000D6E8CF2F0123002AFAD1C6E8423F002AA7
:100B2000F6D1BFF35F8F0D4B00F110049B680C4AA8
:100B300053F82430934203D0994201D004F09EFC34
:100B4000064B9B6843F82450BFF35F8F0023C6E831
:100B50008F3F87F31088F8BD6916002000ED00E094
:100B6000110100102DE9F04F80468B46174683B0E7
:100B7000EFF3108372B6DFF8D0A10093DAE8CF1F4D
:100B800001230029FAD1CAE8413F0029F6D1BFF379
:100B90005F8F664E96F90050002DC0F2A080644C25
:100BA00005EB450304EB8300817908F110083170EF
:100BB00060499B008968994651F828E00646AEEBEB
:100BC00004012F294FEA450231D95B4B9E4540F085
:100BD000A2805A4B09F10209A144043BA3EB09038B
:100BE000C3F34A036FEAC3434FF421416FEAD3438F
:100BF000154424F8251004EB85056B804BF6015352
:100C0000AB80FF2346F0010EEF71C5F808B0AB7161
:100C1000484B9B6843F828E0BFF35F8F0023CAE886
:100C20008F3F009B83F3108803B0BDE8F08F2EF058
:100C3000010191F807C0BC452BD84FF42146E6527C
:100C40003E4B09F102062644043B09F104099B1BB3
:100C5000A1440E1FC771A6EB0906394FC6F34A0619
:100C60003E438680C3F34A03364E3B4343804AF6F5
:100C7000AA250B461B1B5B415D432D0DC0F808B038
:100C8000857140F0010E0E60C2E7C079B8422BD9E1
:100C9000614691F9063003EB430004EB8000002B22
:100CA0008446F2DA4BF6015001930B1D043EF61A0E
:100CB000C6F34A066FEAC6466FEAD64602EB050C53
:100CC000DFF88090019B8D7104EB8C058E8044F8D9
:100CD0002C90A880AB71EF71C5F808B098E704F0CC
:100CE000CDFB96F900505AE788880193400501F141
:100CF000040315D44FEA605C6FF007000CF1020C9E
:100D0000A0EB090003EB4C0C001B6044C0F34A004D
:100D100040F46040CAE7019204F0B0FB019A58E742
:100D200000F5FF1000F5FF501F30E3E7B4A00020EE
:100D30000412002000ED00E0110100103412002028
:100D400000E0FFFF01488047691600204FF0FF0CCC
:100D500020F0030303F1604303F5644300F0030054
:100D60001A68C0000CFA00FC22EA0C0281400A4317
:100D70001A607047F0B5EFF30585EDB2EFF3108C14
:100D800072B62649D1E8CF2F0123002AFAD1C1E853
:100D9000423F002AF6D1BFF35F8F214E40F0010E93
:100DA000B4684AF6AA2354F825701E4A0446A41AC9
:100DB000644163431B0D77455BB21BD092F906403B
:100DC0009C421CD092F912409C4223D092F91E40C2
:100DD0009C4221D092F92A409C4208BF03240FD0A4
:100DE000114A0024157813708571C1E88F4F8CF378
:100DF0001088F0BDB2680D4C42F82540F0E70024A1
:100E000004EB440402EB8402FF2494714BF601547A
:100E10009480E5E70124F3E70224F1E76916002056
:100E200000ED00E004120020B4A000201101001029
:100E300010B5074C82B001460523002200940548F6
:100E4000FFF774FD0028A8BFC0F1330002B010BD49
:100E5000909F0010B8A00020014B1944016070471A
:100E6000601600202DE9F041154D164EB54224D2F2
:100E70002C4623684FF0FF374FF000088BB1FFF787
:100E8000A3FD01462846FFF7E7FF676084F8088066
:100E9000BFF35F8F0C34B4420FD223682546002B7A
:100EA000EDD1FFF791FD01462846FFF7D5FF6760BA
:100EB000BFF35F8F0834B442EFD3BDE8F08100BFC9
:100EC000AC120020BC12002010B50446FFF77CFDD8
:100ED00001462046FFF7C0FF4FF0FF336360BFF3CA
:100EE0005F8F10BD10B504460120FFF783FD034B53
:100EF00018442060BFF35F8F10BD00BF6016002054
:100F0000024B19440160BFF35F8F704760160020E9
:100F10002DE9F04F2DED028B85B0EFF30583DBB2A9
:100F2000103B9A0818BF01224FF0010103F00300A3
:100F3000AD4B00EB82020CBFAC4FAD4F53F82260BB
:100F400001FA00F207F541539FEDA58BB0460190E1
:100F500000925A6035E0B8F804301B0440F19280EA
:100F600098F80630002B40F0DF80B8F90820002AFE
:100F7000C0F22581D8F8143002EB420203EBC20222
:100F8000D2E90245B5F1FF3F08BFB4F1FF3F0DD0F4
:100F9000019B07EB8301BB6A0A69D21AE31A9342E9
:100FA00003D33B6A009A134200D10C61384600F02B
:100FB000CDFB201A65EB0105012875F1000380F2D5
:100FC000FE80B8F90840009B002CFB63C3DBD8F817
:100FD00014A004EB440B38460AEBCB05D5E9029686
:100FE00000F0B4FB484561EB06010029B3DB002E9D
:100FF000C0F2C3802B697F4A934200F0FD806A886B
:10100000B8F9080092B242EA00406969984702467E
:101010000B4652EA030100F0B080002B80F2D5802D
:10102000B9EB020066EB0303C5E902033AF93B5052
:10103000002D90DBD8F814C005EB45010CEBC10185
:101040008A68821ACA6863EB0202002A83DBA8F866
:10105000085007E09568451BD56863EB0505002D32
:1010600008DB1146B1F9006006EB4602002E0CEBDE
:10107000C202EFDA2AF83B600C80B8F804301B0497
:101080003FF56EAFD8F81030EFF3108272B6D3E8A8
:10109000CF0F01210028FAD1C3E8401F0028F6D164
:1010A000BFF35F8F4FF6FF70B8F804900023D8F8B5
:1010B00010100FFA89F9A8F80400C1E88F3F82F3F5
:1010C00010889945FFF64CAFBA46D8F8145008F18D
:1010D000080B09EB490E05EBCE03D3E90267B8F91B
:1010E0000830DC46002B05DA0FE035F93430844651
:1010F000002B0ADB03EB430405EBC400D0E902122A
:10110000711A67EB0202002AEFDAACF8009035F9A9
:101110003E9025F83E30B9F1000FDADA98F8063043
:101120005746002B3FF421AF002388F80630B8F96A
:10113000083008F1080C5E1C41D01A46D8F814405B
:1011400003E08446591C3FF412AF03EB430104EB68
:10115000C10045881E462D0434F93130F1D5964240
:1011600080ED028BEED0ACF80030B8F8082024F8FF
:1011700031203246A8F80860E4E73AF83B30A8F896
:101180000830D8F81030EFF3108272B6D3E8CF0FE2
:1011900001210028FAD1C3E8401F0028F6D1BFF38F
:1011A0005F8FB8F80230D8F810102AF83B300023CF
:1011B000A8F80240C1E88F3F82F31088CBE640BF19
:1011C00005B0BDEC028BBDE8F08F3846CDE90223B7
:1011D00000F0BCFA029A039B801843EB010323E75B
:1011E000FFFFFFFFFFFFFFFFF81E002000000B4086
:1011F00000800B40110F00106B6918461A690293AA
:1012000090470028B9D0029BD3E9002301E700BF33
:101210000B4808B50368EFF3108172B6D3E8CFCF5F
:101220000122BCF1000FF9D1C3E84C2FBCF1000F33
:10123000F4D1BFF35F8F01F077F80020002108BDE3
:101240008C1F00202DE9F84F364C25692DB1BDE8E3
:10125000F84F0A213448FFF7FFBDDFF8E48003268A
:101260000321404600F060FAC4F80C80FFF7ACFBA5
:101270004FF0504C2D4B26701844DCF800300F21F5
:101280006370636961801D834FF00405A3F8785093
:101290004FF00505A3F890504FF00605A3F8A850AD
:1012A0004FF007050E21206108274FF6FF724FF01F
:1012B0000A0EA3F8C0504FF001094FF00C0C4FF08C
:1012C000020B4FF0090A0D204FF00B05A3F868112F
:1012D0001749A280A3F808E1A160A3F848B0A3F8D9
:1012E000F0A0A3F82051A3F838C1A3F85001A3F847
:1012F0003090A3F86060A3F8D8701A800D4B304688
:10130000C8F820700C49DC60FFF7FCFB494630460A
:10131000FFF7B4FB094B0A211F600348BDE8F84FF3
:10132000FFF79ABD4C1200208C1F00206016002091
:10133000FFFF1000F81E0020110F001040200B408E
:1013400000000B40004870474C1200202DE9F0418E
:101350009DF82050044617461E4635B900F0FEF9A8
:10136000874266EB0101002957DB2169EFF310800A
:1013700072B6D1E8CF2F0123002AFAD1C1E8423F4B
:10138000002AF6D1BFF35F8FB4F90220D4F814C05D
:1013900002EB4201002A4FEAC10E0CEBC10102DB55
:1013A0003CF80E3063804FF000082369C3E88F8F4C
:1013B00080F31088424533DB4888069B0130C0F338
:1013C0000E00012838BF01200B61079B48804B614C
:1013D000C1E9027640EA02402369EFF3108172B658
:1013E000D3E8CF6F0125002EFAD1C3E8465F002E67
:1013F000F6D1BFF35F8FA3882CF80E30A28023694B
:10140000C3E88F8F81F310880122E368217803F508
:1014100001538A405A60BDE8F0812846BDE8F0815A
:101420004FF0FF30F7E700BF0146F0B50069EFF37A
:10143000108772B6D0E8CF5F0124002DFAD1C0E842
:10144000454F002DF6D1BFF35F8FB1F902E04C6933
:101450000EEB4E0C4FEACC06BEF1000FA8BFA05B0E
:101460004FF00005A8BF488004EBCC0C0869C0E829
:101470008F5F87F31088AE4535DBBCF80200CCE9FE
:1014800002230130C0F30E00012838BF0120059B64
:10149000ACF80200CCF81030069B40EA0E40CCF8C5
:1014A00014300B69EFF3108272B6D3E8CFCF012767
:1014B000BCF1000FF9D1C3E84C7FBCF1000FF4D1AF
:1014C000BFF35F8F8B88A353A1F804E00B69C3E8D7
:1014D0008F5F82F310880122CB68097803F50153EE
:1014E0008A405A60F0BD4FF0FF30F0BD4289B2EB48
:1014F000214F38DD42690B1403EB430310B502EBB7
:10150000C3030469EFF3108C72B6D4E8CFEF012265
:10151000BEF1000FF9D1C4E84E2FBEF1000FF4D197
:10152000BFF35F8F5A8889B292B28A4207D00023F4
:101530000269C2E88F3F8CF31088184610BD42F450
:1015400000425A800123002201698371C1E88F2F74
:101550008CF31088C268017802F5015203FA01F198
:101560001846516010BD0020704700BF407870479A
:101570002DE9F043B0F1960641F1FF35B04271EB31
:10158000050338BF002683B038BF354604460F46F2
:1015900000F0E4F8301A65EB0101012871F1000355
:1015A00006DA2046394603B0BDE8F04300F006B93C
:1015B00000F0D4F8864265EB010100290ADB002126
:1015C000154B3246009315482B460191FFF72CFF2F
:1015D0000028E6DBDFF84C80DFF84490D8F82430B0
:1015E0009D4205D8D8F82820B242DAD29D42D8D1FF
:1015F000D9F80030EFF3108172B6D3E8CF0F012293
:101600000028FAD1C3E8402F0028F6D1BFF35F8F3E
:10161000034800F055FEE1E7111200104C120020C3
:101620008C1F002000000B4010B5044600F096F817
:101630004FF47A73E4FB0301BDE810400029BCBFFE
:101640004FF0FF306FF00041FFF792BF2DE9F043FC
:1016500007460E4683B0EFF30584E4B274B12F4B16
:10166000586A884203D2002003B0BDE8F0839B6A29
:10167000BB4248D3012003B0BDE8F083284DD5F824
:101680000C9095F80080484600F060F808F10408D6
:1016900059F828301B1A381A66EB0101984271F18B
:1016A00000030DDB20BF1D4B586A8642DBD89B6AC6
:1016B000BB42DFD2301A18BF012003B0BDE8F0836F
:1016C00000F04CF8874266EB0101002913DB154B53
:1016D0002846CDE900343A463346FFF7A5FE011E01
:1016E00009DD0E4B5A6A964215D89B6ABB4210D34D
:1016F0000B48FFF7FBFE094B586A8642B3D89B6A3A
:10170000BB42B7D2D6E7401A18BF012003B0BDE8EC
:10171000F0839642ECD120BFEAE700BF00000B4007
:101720004C1200201112001010B4054B054C064A53
:10173000A04214BF1846581C5DF8044BFFF7C8B808
:10174000801A002000800B40AC9F0010416A0B46BD
:10175000826A416A8B42FAD110467047034B596A3C
:101760000A46986A596A9142FAD1704700000B40C4
:1017700010B4114A536A9C46946A536A6345FAD17D
:1017800000194B414FF0000228BF012212B14FF067
:10179000FF33184608494A6A9A42FCD39A4207D155
:1017A000054A02E0516A994202D1916A8142F9D315
:1017B0005DF8044B704700BF00000B40074A536AB6
:1017C0009942FCD8994207D1044B02E05A6A9142EF
:1017D00002D19A6A8242F9D3704700BF00000B40E1
:1017E000F0B5002601270468002BE6668446616098
:1017F00030469DF81450E7661ADD85EA0706760242
:1018000003F1FF3E616F1029FCD000B34FF48071EB
:101810000027864504BF47EA060141F48071216133
:10182000D4F88010616B490605D54FF0FF30636D29
:101830008CF80450F0BDA16F0029F1D0216901306E
:10184000834202F8011BF3D0DCF80040DAE79CF891
:10185000041000290BBF4FF480714FF4A0610027E2
:101860004FF48067D5E700BF2DE9F0414FF0010C40
:1018700000250468002BE5660646616028469DF851
:101880001870C4F86CC020DD87EA0C056D0203F106
:10189000FF3EE8B14FF0000886450CBFAC464FF064
:1018A000000C12F8011B41EA080141EA0C01216118
:1018B000616BC906FCD5D4F880C0BCF1000F0FD114
:1018C000864525D001308342E3D13771BDE8F081F0
:1018D000317900290CBF4FF000084FF48068DBE736
:1018E0004FF00108616D616B8905FCD5216EB8F17F
:1018F000000FE7D0BCF1000F0ED01CF0010F0BD190
:101900001CF0080F08BF4FF0FF303771BDE8F081C1
:10191000002FD7D1B846E6E74FF0FF30D5E700BF3C
:10192000F8B5064605200C4600F0ECF800EB540C28
:10193000BCFBF4FC214B0CEB4C02A3FB02532049F3
:101940009F088C42ACEB930530D801F1D64101F5EC
:10195000A10101F62C0100EB4003A1FB03139B0D39
:10196000013300244F2A98BF01223168B0FBFCF0FC
:10197000CC660C6801F5805684F0040404F006047B
:10198000346088BF0D4CCD6184BFA4FB0242920934
:101990000F62C1F8A0200A46012452F87C5F6B4018
:1019A0009BB202F580521360CC66F8BD054900EB8E
:1019B0004003A1FB0313DB0D0133D2E7CDCCCCCC2C
:1019C0003F420F00893BE6550E4A30B490420CBFAF
:1019D000102220220C4D0D4B0D4C2A601A60A3687A
:1019E00032EA0303FBD140F2651503240268037158
:1019F000D3661560D3639363C2F8884030BCFFF7A9
:101A00008FBF00BF6412002000200240003002405F
:101A10000000024010B49DF8044001945DF8044BAE
:101A2000FFF722BF10B49DF8044001945DF8044B09
:101A3000FFF7D6BE00EB400C4FEA8C0C0CF1804C4B
:101A40000CF5803C70B5DCF80440A0F1040EB4F550
:101A5000803F38BF4FF480345FFA8EFE38BFCCF839
:101A60000440BEF1010F29D94FF40066244D0CF556
:101A70004054266055F82060BEB9DCF800400CF5F3
:101A8000805684EA421202F0E002BEF1010F326099
:101A900028D94FF4006145F820304FF480330CF51D
:101AA00000521160CCF8043070BD6C69B4FBF6F4E0
:101AB000013404EB4404033CFDD2DEE70129D3D119
:101AC00003250CF540542560DCF80840E407FBD5FD
:101AD000DCF800400CF5805684EA421202F0E00285
:101AE000074D32600122DCF800404C4004F0030452
:101AF000346002FA01F1DCF808200A42FBD0C8E7A2
:101B0000841A0020014B53F820007047841A0020EB
:101B100070B4039C0568240344EA03431B4C002D66
:101B2000B4FBF1F4B2FBF4F21FDB194D194CA842DF
:101B30000CBF4FF400454FF48045174E256004F567
:101B400080542560B46835EA0404FBD1212500F5F2
:101B5000405404340160826025600268002AFCDA87
:101B60000822C360226070BC7047046804F03F0420
:101B70008C42DAD18468C4F30B049442D5D1C46892
:101B800004F4EE249C42D0D1EDE700BF001BB70067
:101B900000800540002002400000024030B44FF0B9
:101BA00080441D4B1C60E0B11C4CA3F54053DC612C
:101BB0001B4C40F0010044401C62596298624FF097
:101BC00080454FF0E061144B1648174C1D6084604F
:101BD00019604AB930BC4FF00042A3F580531A6037
:101BE0007047124BD861EAE74FF47A7303FB02F2B5
:101BF000B2F1807F09D20E4B1A604FF0804130BCA9
:101C00000A480C4B4260196070476FF07F430849E7
:101C10001A460B60F1E700BF00B00D40D3C007B01B
:101C20002D3FF84F00A00140F3FFFF0100800D4061
:101C3000E81E002000A00D40012300EB40008000C2
:101C400000F1804000F5841041600360704700BFE0
:101C500010B5002482B00B46E48A002141E800F16F
:101C6000CDE900034B0254BF1021042144F252205D
:101C7000A047DDE9002386460A214FF48170F4462F
:101C800002B0BDE8104060470023DB8A002242E832
:101C900000F2520201D4102118470421184700BF56
:101CA00008B50B46011E02DB22B143F03003184693
:101CB000FFF7CEFF43F02003F9E700BF034AD2F855
:101CC0002838002BFBD0BFF35F8F704700000E4019
:101CD0000021044B044ABFF35F8F43F8041B934277
:101CE000F9D170470C080E402C080E4010B44FF488
:101CF0008D704FF42A64064A064B07491460D06081
:101D000019605368002BFCDA5DF8044B704700BF84
:101D10000080044000A0044000B0FA00F8B5054679
:101D200006200E46FFF7EEFE002842D0354A364820
:101D300095420CBF4FF000624FF08062334B344944
:101D400002601A608C6832EA0404FBD12D4B4FF418
:101D50008071EB1AB3FA83F32E4A5B0922F8131051
:101D60000620FFF7CFFEC000B0FBF6F60136F30900
:101D700020D1402701226A62AB622E6BF30722D486
:101D80002B46002253F82C1F062003F580542260B6
:101D90002E63FFF7B7FEEB6A40F2013283F0700367
:101DA00003F07E03236080000323B0FBF7F02A6377
:101DB000AB64F8BD4FF6FE7293421BD923464FF633
:101DC000FF72154FD7E740F2013205F540531A6311
:101DD0006B6AAC6A062004EB8314FFF793FE0F4B8B
:101DE000A402A3FB0023DB0A0021B4FBF3F0FFF7FE
:101DF000BFFCC5E7C6F345061A4606EB8317334614
:101E0000B9E700BF008007400020024000300240D8
:101E100000000240981F0020C0FF3F00757B2B8F01
:101E2000F8B5431E0A3311D800F1080410F007007A
:101E300005D0C0F10800C343A34207D3044401F016
:101E4000CBFC334923460D6815BB0AE001F0C4FC06
:101E50002F490B6823B1002502F00CFE2846F8BD7F
:101E60001C462C4842074BD1024600F50045083D70
:101E700025F007050D600021274EAA1AC6E90001CA
:101E8000C5E900112549C0E900520A6024490A60E9
:101E9000002BE0DD224F3E68A642DCD31E4B1846E5
:101EA0001B6803E01A6822B1184613465968A1421C
:101EB000F8D3AB42CFD01D46A1EB040C55F8082B4C
:101EC000BCF1100F026007D9214603EB040ECEF8D7
:101ED00004C01A51C0F800E00024104A761A1068B5
:101EE00041F0004186420F4838BF166002685960D1
:101EF00001321C603E60026002F0BCFD2846F8BD65
:101F0000C21D22F0070200F500451046AFE700BFF2
:101F1000281F00209C1F00206CA000203CA0002057
:101F20002CA0002048A0002030B150F8043C002B29
:101F300002DA50F8082C02B1704710B523F00043C4
:101F400082B040F8043C194C019001F045FC019826
:101F5000226850F8041C164B0A44083822601A46BE
:101F60001B689842FBD8546802EB040C604519D0FA
:101F70004418A3420CD00360824218BF10600D4A7F
:101F800013680133136002B0BDE8104002F072BD67
:101F9000094C2468A342EED0D3E900342144C0E9BF
:101FA0000031E9E7214410465160E1E72CA0002010
:101FB0006CA000204CA00020281F00200A4B93F9A1
:101FC0000020002A0FDB4FF050410123D1F8880197
:101FD0009340184207D04FF0E0224FF08050C1F8F4
:101FE0008C31C2F8040D70476C120020002300B53C
:101FF00083B0019300F090FA019B002BFCD003B05A
:102000005DF804FB10B502F013FE044601F0F8FB86
:1020100028B14FF0E0234FF08052C3F8042D204642
:10202000BDE8104002F09ABE10B504224FF0E02443
:10203000002322610520A361FFF764FD0722044B02
:10204000A3FB00308309013B6361226110BD00BF27
:10205000D34D62104FF0E0234FF07F42002130B5A6
:1020600085B00391C3F81C2DD3F81C3D1B0E8DF8D1
:1020700007309DF807309DF807301A060CD5039BF2
:10208000013303939DF807305B00DBB28DF8073016
:102090009DF807301B06F2D4039B082B40D0039B0E
:1020A000C3F107031B0203F4E0634FF050412548DE
:1020B000254A036012780B689A4233D04FF0E02330
:1020C00000244FF05045D3F8202D204942F47F02E0
:1020D000C3F8202D0E20C3F81C4D03F0BBF81C499B
:1020E0000B2003F0B7F82A681A4BFF2143F822406F
:1020F0001A20FEF72BFE1A201749FEF703FD0121D7
:102100001A20FEF7BBFC00F0FFF9286801F0B4FCD0
:10211000029400F001FA029B002BFCD005B030BD08
:102120000023C2E7FFF780FF4FF0E022D2F8203D06
:102130000A4943F07F43C2F8203D0F2003F08AF89C
:10214000BCE700BFAC9F00206D12002041250010AD
:10215000D9250010A49F0020BD1F001005200010ED
:1021600008B500F0D9F9BDE80840FFF773BF00BF1C
:102170004FF0E0234FF08052C3F8042DBFF34F8F90
:10218000BFF36F8F704700BF836913F8023C662B63
:1021900000D070474FF0E023D3F8882D42F470024E
:1021A000C3F8882DD3F8342F42F04042C3F8342FBF
:1021B00000F08EB92DE9F0474FF080744FF01037E2
:1021C0004FF0093540F8044C4FF0073440E90B5705
:1021D000164D40F8344C40E903524FF0113C4FF09B
:1021E00006344FF0053240E909C340E90F240346A5
:1021F0004FF0123A4FF003394FF002384FF0013EE2
:102200004FF008364FF004356FF0020240E9059AAE
:1022100040E907E840F8306C40F8405C40F8442C56
:1022200043F8481D1846BDE8F08700BFED1F0010B9
:1022300070B50E20FEF7D4FB0F20FEF7D1FB012175
:10224000032003F09DF8024601234FF05041002483
:1022500052B2084E9340084D32700848C1F88C3194
:10226000C1F884312C7003F069F8FFF7F3FE2046C3
:1022700070BD00BF6C1200206D12002061210010A3
:10228000EFF305830F2B84BF014A9B5C704700BFAF
:10229000F0E300E0094B1B78FF2B0BD0EFF3058335
:1022A000DBB22BB14FF05042106800EB4300704797
:1022B00001F090BE4FF05043186870476D12002037
:1022C000154B1B78FF2B07D100230268C2E88F3F14
:1022D00081F3108820BF704710B5002382B00268D8
:1022E000C2E88F3F81F310884FF0FF34012200686D
:1022F0000A490094401A0A49A1FB00C1090901EBEF
:102300004101A0EBC101074802FA01F1006800F0A9
:10231000AFF902B010BD00BF6D12002060160020A2
:10232000ABAAAAAA28A0002010B5204B8E461B7885
:1023300082B0FF2B30D04FF0010C1D4902681D4BBD
:10234000521AA3FB02131B0903EB4303A2EBC303C3
:102350000CFA03F140BF00240368C3E88F4F8EF3EB
:102360001088EFF30583DBB233B9134B186802B062
:10237000BDE8104000F0D6B90F4B01AA18680194CF
:1023800000F004FA019B2BB14FF0E0234FF0805294
:10239000C3F8042D02B010BD40BF00230268C2E89C
:1023A0008F3F81F3108802B010BD00BF6D12002076
:1023B00060160020ABAAAAAA28A00020F0B5354CD0
:1023C000064694F800C00F46BCF1FF0F14461D46A8
:1023D00083B04ED0FFF7C2F940F2E733B4EB000C04
:1023E00065EB010E1CEB03004EF10001B0F57A7FA6
:1023F00071F100031CDA00233268C2E88F3F87F3D3
:102400001088254B5A6A95420CD94FF0E0234FF0C3
:102410008052C3F8042DBFF34F8FBFF36F8F00209E
:1024200003B0F0BD9B6AA34230D3012003B0F0BDDE
:102430004FF47A72002307F023FC0028DBD000233E
:102440003268C2E88F3F87F310880122009030681D
:102450001249401A1249A1FB0061090901EB41012F
:10246000A0EBC1010F4802FA01F1006800F000F989
:10247000C7E700230268C2E88F3F81F31088204637
:10248000294603B0BDE8F040FFF7E0B89542BCD064
:102490000120CBE76D12002000000B4060160020E9
:1024A000ABAAAAAA28A0002008B500F0D3F8014BD7
:1024B000186008BD28A0002001234FF050420349B6
:1024C00091F900108B40C2F8803170476C120020E7
:1024D0000BA10CC9126853F82210086806C881F3D2
:1024E0000B88022181F31488203080F30988BFF320
:1024F0006F8F4FF0000080F311881047AFF300801A
:10250000000000D0181F002062B661B6BFF34F8FE5
:10251000BFF36F8F66DF00BFEFF311804FF0100144
:1025200081F31188BFF34F8FBFF36F8F704700BFE8
:1025300080F31188BFF34F8FBFF36F8F704700BFD9
:10254000EFF309811EF0100F08BF21ED108AEFF3A1
:102550000B82734621E9FC0F55FC084457FC0964C3
:1025600059FC0A8401E9F00319A00CC8106853F85B
:10257000203019604FF0100181F31188BFF34F8FA5
:10258000BFF36F8F01F078FA4FF0000080F31188ED
:102590000FA10CC9126853F8221008681838B0E867
:1025A000F00345EC004447EC016449EC0284B0E8D8
:1025B000FC0F13F0100F08BFB0EC108A82F30B88E9
:1025C00080F30988184700BFAFF30080AFF30080A5
:1025D000000000D0181F00201EF0040F0CBFEFF306
:1025E0000880EFF3098001490847000089210010A5
:1025F0002DE9F04106460D4601F0EEF833683469E6
:1026000006F10C072B43A74233601ED04FF00008A1
:102610000AE02B4206D0D30148BF48EA050802F081
:1026200065FA3368A7420ED020460268646812F04B
:10263000806F43F0007122F07F45EAD035EA030C49
:10264000E9D0A742F0D123EA08033360BDE8F041A6
:1026500002F010BA10B51C20FFF7E2FB044620B1CF
:10266000002340F8043B00F09FF8204610BD00BF57
:102670002DE9F04106461F460D46904601F0ACF8A4
:10268000346867B92C420DD0B8F1000F0CD024EAA1
:102690000505356002F0EEF92046BDE8F08135EA27
:1026A0000403F1D0069B23B902F0E4F92046BDE80B
:1026B000F081B8F1000F1A460BBF4FF080614FF068
:1026C000A06100234FF08073002F08BF1946301D12
:1026D000294301F067FB02F0CDF948B102F070FB2D
:1026E000830104460BD524F07F442046BDE8F081E9
:1026F00001F0C6FD02F064FB83010446F3D401F04F
:10270000D1FD346857B9254205D0B8F1000F02D089
:1027100024EA0505356002F0D5FAE4E735EA04035A
:10272000F9D1F2E72DE9F04106460D4601F054F8E3
:102730003368346906F10C072B43A74233601ED07F
:102740004FF000080AE01D4206D0D30148BF48EA16
:10275000050802F0CBF93368A7420ED02046026884
:10276000646812F0806F43F0007122F07F45EAD078
:1027700035EA030CE9D0A742F0D123EA080333601D
:1027800002F078F93068BDE8F08100BF8C4600B5F2
:10279000864613467146624602485DF804EB02F035
:1027A00041BD00BFF12500104FF0FF31002200F1C4
:1027B0000803C0E90131C0E903330260704700BF7C
:1027C00000230361704700BFD0E9002310B49C6868
:1027D00001328C609C684B60616099605DF8044BCD
:1027E00008610260704700BF30B40D686B1C10D0E8
:1027F00000F108031C465B681A68AA42FAD902680D
:102800004B60013299608C606160086130BC02608D
:10281000704704696368F2E70346026910B45468BC
:10282000406899689C428160486008BF51600021FF
:1028300010685DF8044B013819611060704700BFE3
:1028400070B51546026C0446866B2AB905684DB30F
:1028500000200136A66370BD7DB9406807F0F0F82E
:102860006368226C1344A26863609342F0D32368C8
:10287000013628466360A66370BDC06807F0E0F8C3
:10288000226CE36851429B1A2268E360934202D2B1
:10289000A3680B44E360022DDAD1012E38BF012674
:1028A0000020D7E7806801F025FC0136A560D1E75C
:1028B0002DE9F047064684B001F0F4FC96F8453067
:1028C0005DB2002D1CDD06F1240708E0A26BE36B6E
:1028D00003969A423DD36B1EDAB25DB282B1B46CFC
:1028E000002CF3D1736A5BB1384601F0F9FA002885
:1028F000F1D001F065FB6B1EDAB25DB2002AEED1B9
:10290000FF2386F8453002F0DDF901F0CBFC96F8A4
:1029100044305CB2002C14DD06F1100503E0631EA8
:10292000DAB25CB26AB133695BB1284601F0D8FA19
:102930000028F4D001F044FB631EDAB25CB2002A36
:10294000F1D1FF2386F8443004B0BDE8F04702F02F
:10295000B9B994F84580226CD4F838904FFA88F8C9
:1029600092B92368002B3BD04FF0000A09F1010314
:10297000B8F1FF3FA3631CD1636A43BBBAF1000FF8
:10298000A9D001F01DFBB6E7606803A907F058F86D
:102990006368226C1344A26863609342E4D32368A3
:1029A000B8F1FF3F636009F101034FF0000AA36330
:1029B000E2D000F01FFF4045E0D908F101084FFACE
:1029C00088F884F84580BAF1000FDAD183E704F182
:1029D000240001F085FA0028D0D001F0F1FA8AE74E
:1029E000A068019301F086FB019B8246A360BDE7CE
:1029F000F0B5846C83B0A26BE36B01909A4203D371
:102A00000025284603B0F0BD94F84560226CA76B02
:102A100076B2E2B1606801A907F012F86268236C2F
:102A20001A44A36862609A4213D300252368636046
:102A30000137731CA76312D1636A002BE1D004F144
:102A4000240001F04DFA002818BF0125D9E72568B8
:102A500075B10137731C4FF00005A763ECD000F08F
:102A6000C9FE8642CDD2013676B284F84560C8E709
:102A7000A06801F03FFBA5600546D9E7F8B5C0B3F3
:102A80001746A0FB012305460E4693BB01FB00F051
:102A900010F1550F2DD85430FFF7C2F9044640B35A
:102AA00056B300F15403C4E90F56236001F0FAFB5A
:102AB000D4E90F3101FB03F32268591A13440025AE
:102AC000A360FF2362600A44E260A56304F1100082
:102AD00084F8443084F84530FFF766FE04F12400A2
:102AE000FFF762FE02F0EEF884F850702046A5640D
:102AF000F8BD00242046F8BD0346D4E72DE9F04395
:102B0000002685B0044689461F46B046019207E07C
:102B100002F0D8F82046FFF7CBFE01F0ABFF01260C
:102B200001F0C0FBA06BE26B90423AD3022F4CD075
:102B3000019D002D54D086B302F0C4F800F04CFE85
:102B400001F0B0FB94F84430FF2B08BF84F84480B8
:102B500094F84530FF2B08BF84F8458002F0B2F8A6
:102B600001A902A802F010F800283FD101F09AFB59
:102B7000A26BE36B9A42CBD102F0A4F8019904F165
:102B8000100001F0F5F82046FFF792FE01F072FF09
:102B90000028C4D101F074FBC1E702A801F004FAD7
:102BA000CAE73A4649462046A56BFFF749FEA36CA3
:102BB0002BB3022F11D02046FFF71AFF18BB02F0EB
:102BC00081F8012005B0BDE8F0833A464946204629
:102BD000A56BFFF735FEA36C8BB1002DEBD0EEE7B4
:102BE00002F070F8284605B0BDE8F0832046FFF7F4
:102BF0005FFE01F03FFF002005B0BDE8F083636A8F
:102C000023B90028DBD001F03BFBD8E704F1240016
:102C100001F066F90028D2D0F5E700BF70B505468F
:102C20005420FFF7FDF8044668B300260123206016
:102C3000C0E90F3601F036FBD4E90F20FF2300FB7B
:102C400002F22168101A61600A440144C4E90221B9
:102C5000A66304F1100084F8443084F84530FFF78F
:102C6000A3FD04F12400FFF79FFD02F02BF833468B
:102C700032463146204684F85050A664A66026604D
:102C8000E660FFF73BFF204670BD00BF2DE9F8432B
:102C9000044690461D460F46FFF7F2FA01F0C8FFC2
:102CA000A26BE36B06469A4208D3022D06D000259C
:102CB000304602F053F82846BDE8F883394694F8C8
:102CC00045702A4620467FB2D4F83890FFF7B8FD09
:102CD0007B1C12D1A36CFBB1022D02D1B9F1000F04
:102CE0001CD12046FFF784FEC0B1B8F1000F15D00B
:102CF00001231D46C8F80030DAE700F07BFD87426B
:102D00000CD2012501377FB2304684F8457002F0BD
:102D100025F82846BDE8F883636A33B901253046B3
:102D200002F01CF82846BDE8F88304F1240001F005
:102D3000D7F80028D9D1F1E72DE9F041044684B055
:102D40000F46019201F0AEFAA56B002D55D1019B03
:102D5000ABB302A801F028F92E4604F1240801F0D3
:102D6000B1FF00F039FD01F09DFA94F84430FF2BDB
:102D700008BF84F8446094F84530FF2B08BF84F8FE
:102D8000456001F09FFF01A902A801F0FDFEE0B936
:102D900001F088FAA36B2BBB01F094FF4046019928
:102DA00000F0E6FF2046FFF783FD01F063FE08B365
:102DB00001F078FAA56B05BB019B002BCFD101F088
:102DC00081FF002004B0BDE8F0812046FFF770FDD0
:102DD00001F050FE01F066FAA36B002BEFD001F07A
:102DE00071FFE5E701F06EFF2046FFF761FD01F09E
:102DF00041FEDDE701F044FADAE7226C5AB1E168FE
:102E0000A36811449942E16028BF2168384628BF71
:102E1000E16006F015FE2369013DA5632BB901F0C1
:102E200051FF012004B0BDE8F08104F1100001F071
:102E300057F80028F3D001F023FAF0E72DE9F0412C
:102E40000446002784B0019101F02CFAA36B3E46A2
:102E5000B846002B3AD1019D002D00F08380002E52
:102E60004FD001F02FFF00F0B7FC01F01BFA94F8EF
:102E70004430FF2B08BF84F8448094F84530FF2B82
:102E800008BF84F8458001F01DFF01A902A801F0E8
:102E90007BFE50BB01F006FAA36B002B35D101F08D
:102EA00011FF2368002B54D0019904F1240000F095
:102EB0005FFF2046FFF7FCFC01F0DCFD002845D059
:102EC00001F0F0F9A36B0126002BC4D02268013B6E
:102ED000A363002A56D02369002B4AD1012701F0B1
:102EE000F1FE384604B0BDE8F0812046FFF7E0FC73
:102EF00001F0C0FD01F0D6F9A36B73B101F0E2FE61
:102F0000DEE702A801F050F8ABE701F0DBFE204657
:102F1000FFF7CEFC01F0AEFDD2E701F0D3FE1FB902
:102F2000384604B0BDE8F08101F0BCF9616A19B11E
:102F3000236B1968C1F104010027A06801F03CF976
:102F400001F0C0FE384604B0BDE8F08101F098F908
:102F5000B6E701F0A7F9A06801F04CF8074601F0C8
:102F6000B1FEA1E72F4601F0ADFE384604B0BDE842
:102F7000F08104F1100000F0B3FF0028AED001F0A2
:102F80007FF9ABE701F03EFFA060A4E700297ED007
:102F900030B400242346444D05EBC30252684FEA87
:102FA000C30C824270D034B10133082BF4D1C4E990
:102FB000001030BC704755F83320002A5FD0072B33
:102FC00003F10102F5D005EBC20464684FEAC20CBC
:102FD000A04259D055F83240002C59D0062B03F1AD
:102FE0000202E6D005EBC20464684FEAC20CA042BC
:102FF0004AD055F83240002C4AD0052B03F1030289
:10300000D7D005EBC20464684FEAC20C84423BD0BF
:1030100055F83240002C3BD0042B03F10402C8D0F9
:1030200005EBC20464684FEAC20CA0422CD055F8EC
:1030300032406CB3032B03F10502BAD005EBC20496
:1030400064684FEAC20CA0421ED055F83240FCB171
:10305000022B03F1060CACD005EBCC025268904277
:1030600010D055F83C20BAB1012BA2D0EB6B98429E
:1030700016D0AB6B002B9CD107234FF0380C05EB1F
:103080000C0491E74FEACC0C05EB0C048FE770477A
:10309000134605EB0C0487E763464FEACC0CEEE7DA
:1030A0004FF0380CF0E700BF4814002070B504461C
:1030B0000E46154601F0F6F894F84430FF2B04BF95
:1030C000002384F8443094F84530FF2B04BF0023DC
:1030D00084F8453001F0F6FDA36B23B12046BDE82E
:1030E0007040FFF7E5BB04F124002A46314600F0AA
:1030F000A9FE2046BDE87040FFF7DABB064C08B5D4
:10310000FFF736F82368022B00D8FEE7FFF730F808
:103110002368022BFAD8F8E7341F002038B5836BF8
:10312000002B02DB836B012B31DD2D4C016B226800
:103130002368126BDB6B4D1EDB07236848BF02F16F
:10314000FF329B6B002B03DB23689B6B012B1FDD86
:103150004FF0FF3362686168126BC96BC907616821
:1031600048BF02F1FF32896B002903DB6168896B7C
:1031700001291CDD01330AD000254FF050431B68A4
:103180009D4228D054F825309B6B02331AD138BDAC
:10319000144B1B68002BDBD19542D9DB416801F051
:1031A0000101002914BF15464FF0FF33D2E70D4946
:1031B00049680029DED1AA42DCDC42689207D9D5F1
:1031C0000125DAE72846FFF777F96FF0010254F896
:1031D00025309A6338BD0122024B43F8252038BDC3
:1031E000181F0020A8A000204FF050411B4B0A6878
:1031F00053F8220000282CD053F82200013843F85D
:1032000022000A6853F822301BBB10B51449154B35
:1032100053F822400B78013BDBB20B702BB91248FC
:1032200000F81230114AC2E88F3F4FF050424B78FD
:103230001068013BDBB24B7033B90B4A0C4902EB0F
:1032400040025370C1E88F3F0020FFF771F90CB9BD
:1032500010BD7047BDE81040FEF78ABFA49F002054
:10326000A09F0020A8A000209C9F00206E16002098
:103270006F1600204FF05042504B12682DE9F04776
:10328000DFF844914E4CDFF8448153F822604D4DF5
:1032900040E0DFF83CA10020FFF74AF9FFF73CF9D6
:1032A0004FF050431B68DAE8CF2F0121002A01D1EB
:1032B000CAE8421FBFF35F8F002A50D15B00012292
:1032C000434462705A704FF050431A68D5E8CF3FBC
:1032D0000121002B01D1C5E8431FBFF35F8F73B1FC
:1032E00018F81230002B4BD1D5E8CF1F012300294D
:1032F000FAD1C5E8413F0029F6D1BFF35F8F012322
:10330000237008F812304FF050431A6849F82270C1
:10331000002F40D0B36B02334ED14FF050410A68BA
:1033200059F822706FB1002349F8223023780A68D7
:10333000013BDBB223701BB908F81230C5E88F3FA0
:103340000A686378013BDBB26370002BA1D108EB04
:103350004202DFF87CA05370CAE88F3F9BE708EB7E
:10336000430252785B0012BBDAE8CF1F012200292A
:10337000FAD1CAE8412F0029F6D1BFF35F8F9EE74B
:1033800023780133DBB223704FF050431A6849F8B9
:103390002270002FBED11A682378013BDBB2237064
:1033A000002BB7D108F81270C5E88F7F6FE76378FC
:1033B0000133DBB2637086E7BDE8F087181F002099
:1033C000A09F00206E160020A49F00209C9F00203C
:1033D0006F16002070B582B0FFF79EF84FF0504294
:1033E000384B1268D3E8CF1F0124002901D1C3E86C
:1033F000414FBFF35F8F344D002941D1510001236C
:10340000324C294463704B70314E3368002B48D0E6
:103410004FF050432F4A1968D2E8CF3F5FF0010CBC
:10342000002B01D1C2E843CFBFF35F8F83B115F802
:103430001130002B40D1D2E8CFCF0123BCF1000FD7
:10344000F9D1C2E84C3FBCF1000FF4D1BFF35F8F5C
:103450000123237005F811304FF0504133680133D8
:10346000336023780968013BDBB223701BB905F890
:103470001130C2E88F3F02B0BDE87040FFF758B886
:10348000510005EB4202527882B9D3E8CF4F0122B6
:10349000002CFAD1C3E8442F002CF6D1BFF35F8F84
:1034A000ADE70190FFF7E6FE0198B1E7074C6378BE
:1034B0000133DBB26370A7E723780133DBB22370FB
:1034C000CAE700BF6F1600209C9F0020A09F00202D
:1034D000CC9F00206E1600202DE9F8435E4C5F4D16
:1034E0005F4EDFF898815F4F2368002B3AD0FFF7DB
:1034F00013F82B6893B14FF050431B6856F8232004
:10350000002A41D04FF0504156F82320013246F8AE
:1035100023200B6856F82330012B2ED023681BB3D1
:10352000514BDB68D3F80C90D9F83830013340F0B8
:103530008B8009F10800FFF76FF94C4A1368013BD3
:1035400013602368013B23602B680BB1FFF74CFE2F
:10355000D9F83400FEF7E8FC4846FEF7E5FC23689E
:10356000002BC4D1BDE8F8832B68002BBCD0FFF73B
:103570003BFE2368002BBAD1F4E7D8F80030002BCB
:10358000CCD1FFF777FEC9E7D7E8CF2F0121002A7A
:1035900001D1C7E8421FBFF35F8F002A35D1344AFB
:1035A000590001233348114443704B704FF0504C85
:1035B000314BDCF80010D3E8CFEF5FF00109BEF12A
:1035C000000F01D1C3E84E9FBFF35F8FBEF1000F24
:1035D00012D012F811E0BEF1000F28D1D3E8CFEFDE
:1035E0005FF0010CBEF1000FF8D1C3E84ECFBEF181
:1035F000000FF3D1BFF35F8F01234FF0504C0370E6
:1036000002F81130DCF800307CE7194A590002EB6F
:1036100043035B7893B9D7E8CF0F01230028FAD191
:10362000C7E8403F0028F6D1BFF35F8FB9E70378C2
:103630000133DBB20370DCF8003063E70D484378F8
:103640000133DBB24370B1E72B68002B8AD0BDE8B1
:10365000F843FFF7C9BD00BFC89F002068A0002045
:10366000A49F00206F16002088A00020C49F002087
:103670009C9F0020A09F00206E160020CC9F002061
:1036800008B5FEF775FD044CFFF726FF2368022BF3
:10369000FAD9FEF76DFDF7E7341F00202DE9F84F4A
:1036A0004FF05045464A474B474C0F46D4F800A0D0
:1036B000464ED2F800800446D3F80090FEF72CFF67
:1036C0002B6856F823B0FEF733FF00238BF87930D0
:1036D000FEF722FF2B6856F823B0FEF729FF0BF107
:1036E0000800FFF799F8631C00D18FBB4FF05045DD
:1036F0001AEB04042CBF01270027FEF70DFF2B68EF
:1037000056F823A0FEF714FFCAF8084097B9FEF751
:1037100003FF2B6856F82350FEF70AFF404605F1D9
:103720000801FFF761F82A4B1A68A24288BF1C60A3
:10373000BDE8F88FFEF7F0FE2B6856F82340FEF741
:10374000F7FE484604F10801BDE8F84FFFF74CB812
:10375000204C6768FEF7E0FE2B6856F82380FEF7E2
:10376000E7FEC8F80C70FEF7D7FE2B6856F82380EA
:10377000FEF7DEFEBB68C8F81030FEF7CDFE2B6802
:1037800056F82380FEF7D4FEBA6808F108035360A8
:10379000FEF7C2FE2B6856F82380FEF7C9FE08F13B
:1037A0000803BB60FEF7B8FE2B6856F82350FEF7FF
:1037B000BFFE2368AC6101332360BDE8F88F00BF12
:1037C000241F00202C1F00209CA00020181F002078
:1037D00040A0002074A00020024B1B6803B9704772
:1037E000FFF7F8BD68A00020014B1868704700BFC4
:1037F0009CA00020014B1868704700BFC49F0020A8
:103800002DE9F84F914B1B68002B4ED1904B1D6852
:1038100001351D60002D50D0DFF85492D9F80030EA
:10382000AB4263D98B4C8C4D2B681B6B03EB830332
:1038300054F82330012B40F2C1806B681B6B03EB03
:10384000830354F82330012B4FF0504340F2D180D2
:103850001B6801241E46002E00F0F480002B00F0AF
:10386000DA802B689B6B023306D00020FEF724FE23
:103870006FF001022B689A63002C00F0D1800024C5
:10388000012E00F0DD804FF050431B68012B00F04B
:10389000D2806B689B6B02330CD00120FEF70CFECC
:1038A0006FF001026B689A6304E000246B4A1368AE
:1038B000013313602046BDE8F88F694B694A1868E8
:1038C00011681960684910600A6801320A601A6854
:1038D0001268002A40F085804FF0FF33DFF89091A6
:1038E000C9F80030D9F80030AB429BD85C4E336841
:1038F0001B68002B00F099804FF0000B554CDFF84F
:1039000074814EE0D2F818C0D2E9033AC3F808A097
:10391000CAF80430DCF8043010468B42DCF8003082
:1039200008BFCCF804A0013BC2F818B0CCF80030B6
:10393000D2F82CC0BCF1000F13D0D2E908A3DCF8F8
:103940000470CAF80830536A7745C3F804A008BF6A
:10395000CCF80430DCF80030C2F82CB0013BCCF8D5
:103960000030136BD8F800C003EB830E634504EB03
:103970008E0A88BFC8F80030DAF804309F68D36038
:1039800017619F687960996054F82E30C2F818A0CA
:10399000013344F82E30FFF7C1FB33681B68002B5E
:1039A00044D03368DB68DA68936802F108019D420D
:1039B00002F11C0EA6D2C9F8003034E76B681B6B0D
:1039C00003EB830354F82330012B16D94FF05043F7
:1039D000264A1E6812683346002A3FF450AF01247D
:1039E00039E71B68DFF88890DB681B68C9F800308E
:1039F00014E71B6800241E462DE74FF050431B4A76
:103A00001B6814681E46FCB95368002B7FF438AF5E
:103A10002046BDE8F88F0121144A116074B91C4694
:103A2000124A5368002BF3D02AE70A4C4FF0FF33B9
:103A3000C9F80030F7E60D4A53603BE71C4622E721
:103A4000344637E70123E9E7002404E7CC9F002050
:103A50009CA00020341F0020181F002050A0002030
:103A6000241F00202C1F002044A00020A8A000201C
:103A700040A00020D49F00202DE9F84F4FF0504384
:103A80000546DFF8ACB21A68DBE8CF3F0121002B16
:103A900001D1CBE8431FBFF35F8FDFF89892002B73
:103AA00053D153000122DFF890824B4488F8012063
:103AB0005A704FF0504399481A68D0E8CF3F01211F
:103AC000002B01D1C0E8431FBFF35F8F83B119F80A
:103AD0001230002B40F0B7809048D0E8CF1F012370
:103AE0000029FAD1C0E8413F0029F6D1BFF35F8F2A
:103AF000012388F8003009F81230894B1B68002B2D
:103B000035D001214FF05043864A42F825101A68FB
:103B100098F80030013BDBB288F8003023B909F88F
:103B200012307E4AC2E88F3F4FF0504298F8013081
:103B30001268013BDBB288F8013023B909EB42027D
:103B40005370CBE88F3FBDE8F88F530009EB42027A
:103B50005278002A6ED1DBE8CF1F01220029FAD16A
:103B6000CBE8412F0029F6D1BFF35F8F9AE76D4A6A
:103B70006D4EDFF8C8A142F82530DAF8007056F82B
:103B800025306A499A6956F825301B6B03EB83038D
:103B900001EB83039A425DD00120644B07EB870160
:103BA00003EB81010B6802460831A84063B922B1DA
:103BB000DAF80030013BCAF800305FB351F81C3C22
:103BC0001439013F002BF2D04B688B4218BFBC4622
:103BD00007D12BE056F82540A24221D05B688B42EA
:103BE00023D0DA68946B671CF4D157683842F5D05B
:103BF00056F825309C6356F82510956346F8252025
:103C000041B1086B494F8B6900EB800207EB8202E0
:103C1000934232D04FF050431A6856F8223077E77B
:103C200054682042DAD09563F4E76746002FF1D05C
:103C30000022C3E7DFF8008198F801300133DBB2DE
:103C400088F8013035E798F800300133DBB288F8A6
:103C5000003052E756F825000830FEF7DDFD56F833
:103C6000253056F82510186B304B00EB800003EB25
:103C700080000831FEF7A8FD8EE7CA6B4B68D107BC
:103C800023FA05F248BF00F1FF30D20704D556F8F9
:103C90002520526823EA02039F0703F0030112D58F
:103CA00072687168126BC96BCD0700D5013A824208
:103CB00003F0010107DA73689B6B002B03DB736869
:103CC0009B6B012B42DDCB07A4D5336832681B6B9D
:103CD000D26BD10748BF03F1FF33834207DA336861
:103CE0009B6B002B03DB33689B6B012B35DD621C68
:103CF00090D04FF050452A68A24221D056F8243087
:103D00009B6B023389D02046FEF7D6FB6FF0010291
:103D100056F824309A632A687FE700BF6E160020A9
:103D2000CC9F0020A8A00020181F0020341F0020D6
:103D30006F1600209C9F0020A09F0020D49F002091
:103D400001230A4A42F824302A6866E7074B5B6879
:103D5000002BB8D139B90124CBE7044B1B68002BE9
:103D6000C5D11C46C5E710460124AEE7A8A0002037
:103D700070B50C460546FEF7CFFB4FF05042084B9E
:103D8000126853F82260FEF7D3FB284606F11C01A7
:103D9000FEF72AFD2046BDE870400121FFF77EBCFA
:103DA000181F00202DE9F8434FF050460F460446F7
:103DB0009046234DFEF7B0FB336847F0004755F8B7
:103DC0002390FEF7B5FBC9F81C706768FEF7A4FBEB
:103DD000336855F82390FEF7ABFBC9F82070FEF767
:103DE0009BFB336855F82390FEF7A2FBBB68C9F82C
:103DF0002430FEF791FB336855F82390FEF798FBCB
:103E0000BA6809F11C035360FEF786FB336855F866
:103E10002390FEF78DFB09F11C03BB60FEF77CFBD2
:103E2000336855F82350FEF783FB2368404601337F
:103E3000EC6201212360BDE8F843FFF72FBC00BF0F
:103E4000181F00202DE9F0474FF050460446174652
:103E50008946D0F80480214DFEF75EFB336855F8A3
:103E600023A0FEF765FBCAF82080FEF755FB3368F8
:103E700055F823A0FEF75CFBD8F80830CAF82430C8
:103E8000FEF74AFB336855F823A0FEF751FBD8F83C
:103E900008200AF11C035360FEF73EFB336855F817
:103EA00023A0FEF745FB0AF11C03C8F80830FEF713
:103EB00033FB336855F82350FEF73AFB2368002F95
:103EC00003F10103EC62394608BF4846236018BF7E
:103ED0004FF0FF30BDE8F047FFF7E0BB181F0020B0
:103EE00070B50025C368D868C36AD0E90842A260EB
:103EF00054605C6800F11C018C42264C08BF5A607B
:103F00001A682468013AC5621A60002C34D1D0E9DD
:103F1000032183699160016900F108054A605A68CC
:103F2000AA421A6808BF59601B49013A1A60036B1C
:103F30000A68934288BF0B60184903EB83034FEA7A
:103F4000830C01EB83035A689468C260046151F8E2
:103F50000C409668013475609560836141F80C40AF
:103F6000FFF7DCF84FF050420D4B126853F8220077
:103F7000003818BF012070BD0A4B5A689468C0E928
:103F80000824946861601C6891600134C3621C60FD
:103F9000E6E700BFCC9F0020D49F0020341F002004
:103FA000A8A0002054A00020034A044B12681B68FC
:103FB000C0E90023704700BF44A000209CA000205F
:103FC0004FF050420121024B126843F82210704713
:103FD000A8A0002010B5FEF79FFA4FF05042044B06
:103FE000126853F82240FEF7A3FA204610BD00BF26
:103FF000181F00202DE9F041044688B34FF05046C9
:10400000076B394DFEF788FA336855F82380FEF7C1
:104010008FFAD8F830309F4224D2E369002B0ADBB4
:10402000FEF77AFA336855F82360FEF781FA336BAE
:10403000C3F10403E361236B2C4EA26903EB8303FA
:1040400006EB83039A421CD0FEF766FA4FF050430A
:104050001B6855F82350FEF76BFA01202B6B236386
:10406000BDE8F081A46DFEF757FA336855F8235088
:10407000FEF75EFA286B84422CBF00200120BDE8C9
:10408000F08104F108073846FEF7C6FBFEF744FA54
:104090004FF050431B6855F82350FEF749FA144A75
:1040A0002B6B116823638B4288BF136003EB830380
:1040B000980006EB83035A689168E2602161956875
:1040C00031586F609760A361A36B0131002B3150B1
:1040D00002DBA36B012B04DD2046FFF71FF8012054
:1040E000BEE70120BCE700BF181F0020341F0020DE
:1040F000D49F002058B1C36D016B826D013B91428A
:1041000070B50446C36500D01BB1002070BD00200F
:10411000704700F108052846FEF77EFBA36D224A92
:10412000C3F10401E161116823638B421F4988BF19
:10413000136003EB83034FEA830C01EB83035A689C
:104140009068E2602061966851F80C007560956097
:10415000A361A36B0130002B41F80C0002DBA36BC1
:10416000012B01DD012070BD4FF05043A26B1B6895
:104170009A4211D0A36B0E4D55F823309B6B02333E
:10418000F0D0A06BFEF798F96FF00102A36B01204D
:1041900055F823309A6370BD0123A16B054A184678
:1041A00042F8213070BD00BFD49F0020341F002092
:1041B000181F0020A8A0002060B1826DF8B59142C0
:1041C00038BF1146036B04468B4202D0C26D012AF0
:1041D00001D0F8BD7047C269254D002A03EB830367
:1041E0008269016305EB8303A4BFC1F10401C161CE
:1041F0009A42EED100F108063046FEF70DFB1D4A4B
:10420000236B11688B4288BF136003EB8303980014
:1042100005EB83035A689168E26021619768295829
:104220007E609660A361A36B0131002B2950D0DB27
:10423000A36B012BCDDC4FF05043A26B1B689A425D
:1042400010D0A36B0C4D55F823309B6B0233C0D0BC
:10425000A06BFEF731F96FF00102A36B55F8233024
:104260009A63F8BD0121A26B044B43F82210F8BDFC
:10427000341F0020D49F0020181F0020A8A0002079
:104280004FF05043054A1B6852F8232022B1012108
:10429000034A42F823107047FDF76ABFA49F00202D
:1042A000A8A0002038B5FEF737F93E4B1B6893B144
:1042B0004FF050433C4A1B6852F82310A1B14FF015
:1042C000504052F82310013142F82310036852F88D
:1042D0002330012B00D038BD344B1B68002BFAD1A2
:1042E000BDE83840FEF7C6BF3149D1E8CF0F012401
:1042F000002801D1C1E8404FBFF35F8F002831D1C2
:104300002C484FEA430C01232B4984444B708CF812
:1043100001304FF0504C294BDCF80040D3E8CF5F20
:104320005FF0010E002D01D1C3E845EFBFF35F8FB1
:1043300085B110F81450002D27D1D3E8CFCF012537
:10434000BCF1000FF9D1C3E84C5FBCF1000FF4D110
:10435000BFF35F8F01234FF050450B7000F814300E
:104360002B68ACE713484FEA430C00EB43035B7840
:1043700093B9D1E8CF4F0123002CFAD1C1E8443FD3
:10438000002CF6D1BFF35F8FBDE70B780133DBB2B2
:104390000B70DCF8003092E707494B780133DBB251
:1043A0004B70B6E768A00020A49F0020CC9F00209F
:1043B0006F1600209C9F0020A09F00206E160020FA
:1043C000F8B50446FFF76EFF2D4A2E4D13680133F2
:1043D00013602B6813B91368012B2ED02A492B4880
:1043E0000A68236B013222650A60026828499342F9
:1043F00088BF036003EB83034FEA830C01EB830365
:104400005A682F68906804F10806206151F80C0082
:10441000E26000F1010E906846609660A36141F889
:104420000CE037B92B681BB1BDE8F840FEF7DCBEE5
:10443000F8BD2046FEF772FEF4E71548FEF7B4F922
:104440001448FEF7B1F9144F1448FEF7ADF9144EB5
:104450001448FEF7A9F93846FEF7A6F93046FEF7EC
:10446000A3F91148FEF7A0F91048FEF79DF910488E
:10447000FEF79AF90F4B1F600F4B1E60AEE700BFAF
:10448000C49F002068A00020D09F0020D49F00205F
:10449000341F0020481F002000A000205C1F0020C7
:1044A00014A00020701F002054A0002088A000202D
:1044B00074A00020241F00202C1F00202DE9F843A9
:1044C0009600804630460D469946FDF7A9FC002827
:1044D00000F0A48007467C20FDF7A2FC04460028DB
:1044E00000F0A0807C22002105F020FB32463846F7
:1044F000A521676305F01AFB636B043E1E4426F09A
:104500000706002D56D02B7884F840302B78002BEE
:104510004DD06B7884F841306B78002B47D0AB7866
:1045200084F84230AB78002B41D0EB7884F84330EC
:10453000EB78002B3BD02B7984F844302B79002B7F
:1045400035D06B7984F845306B79002B2FD0AB795F
:1045500084F84630AB7953B3EB7984F84730EB7984
:104560002BB32B7A84F848302B7A03B36B7A84F818
:1045700049306B7ADBB1AB7A84F84A30AB7AB3B1AD
:10458000EB7A84F84B30EB7A8BB12B7B84F84C3090
:104590002B7B63B16B7B84F84D306B7B3BB1AB7B8A
:1045A00084F84E30AB7B13B1EB7B84F84F300023A3
:1045B00084F84F30089D04F10800032D28BF03251F
:1045C0002563A565FEF7FCF8C5F1040504F11C00A0
:1045D000FEF7F6F84B4642463046616B6461E56192
:1045E000A462FDF7E7FD4FF0FF32124B20609845C3
:1045F000A2630ED0104B98450BD0099B03B11C60F1
:104600004FF0FF3320466360FFF7DAFE0120BDE87C
:10461000F883E36B43F00103E363EEE74FF0FF3011
:10462000BDE8F8833846FDF77FFC4FF0FF30BDE86A
:10463000F88300BF81360010FD3000102DE9F843EB
:104640009600804630460D469946FDF7E9FB002866
:1046500000F0A38007467C20FDF7E2FB044600281B
:1046600000F09F807C22002105F060FA3246384637
:10467000A521676305F05AFA636B043E1E4426F0D9
:104680000706002D56D02B7884F840302B78002B6D
:104690004DD06B7884F841306B78002B47D0AB78E5
:1046A00084F84230AB78002B41D0EB7884F843306B
:1046B000EB78002B3BD02B7984F844302B79002BFE
:1046C00035D06B7984F845306B79002B2FD0AB79DE
:1046D00084F84630AB7953B3EB7984F84730EB7903
:1046E0002BB32B7A84F848302B7A03B36B7A84F897
:1046F00049306B7ADBB1AB7A84F84A30AB7AB3B12C
:10470000EB7A84F84B30EB7A8BB12B7B84F84C300E
:104710002B7B63B16B7B84F84D306B7B3BB1AB7B08
:1047200084F84E30AB7B13B1EB7B84F84F30002321
:1047300084F84F30089D04F10800032D28BF03259D
:104740002563A565FEF73CF8C5F1040504F11C00DE
:10475000FEF736F84B4642463046616B6461E561D0
:10476000A462FDF727FD4FF0FF32114B2060984502
:10477000A2630DD00F4B98450AD00A9B03B11C6071
:10478000099B20466360FFF71BFE0120BDE8F8830C
:10479000E36B43F00103E363EFE74FF0FF30BDE865
:1047A000F8833846FDF7C0FB4FF0FF30BDE8F883D3
:1047B00081360010FD3000102DE9F84F4FF40060F5
:1047C0000026FDF72DFBDFF820810546444FDFF87A
:1047D000309106F1300A00285ED07C20FDF720FBE6
:1047E0000446002860D04FF0000B7C22594605F0AB
:1047F0009DF94FF40062A5212846656305F096F9FE
:10480000606B384B00F2FC70236420F0070584F8DD
:1048100044A004F1080084F845B084F84FB0C4F80F
:1048200030B0C4F858B0FDF7CBFF04F11C00FDF721
:10483000C7FF04225B46E26128464246616B646121
:10484000A462FDF7B7FC4FF0FF33A363264B206053
:10485000984524D0C84522D04FF0FF333C60204615
:104860006360FFF7ADFD012457F8043B1F4A9E63C8
:10487000C84642F826302EB1012C1BD01C4B1B68B9
:10488000BDE8F88F4FF400600126FDF7C9FA06F184
:10489000300A05460028A0D14FF0FF34E4E7E36B6F
:1048A00043F00103E363D7E72846FDF73DFB4FF0F4
:1048B000FF34D9E700F070FC0128DFD1FDF72CFEB2
:1048C0004FF0FF3500220B4B0B480C4905600C6084
:1048D0001A60FDF7ADFC064B1B68BDE8F88F00BF02
:1048E00030A0002049444C4581360010181F00209C
:1048F000701200209CA0002040A0002068A0002092
:10490000FD3000102DE9F04383B0FFF7CBFC4FF0F2
:1049100050404B4A4B4913680468013B13604B7885
:104920000068013BDBB24B7033B9474901EB4001F2
:104930004B704649C1E88F3F1768002F70D1444B38
:104940001868002862D0434E3368002B49D0DFF846
:104950001CC1414DF368DB68DA6AD3E9081088604E
:104960004160516803F11C0E7145116808BF506029
:104970000139DF621160996903F1080ED1F80480F2
:10498000D3E90302F0458260506008BF4A601A6BA9
:10499000DCF8009002EB820808684A4505EB8809BC
:1049A00088BFCCF80020D9F804200138086090684E
:1049B00055F8281018619068DA60C0F804E0306893
:1049C0000131C2F808E0C3F8189045F82810002813
:1049D000C0D1224B1A6812685ABB4FF0FF32204BED
:1049E0001A60DFF88C80D8F80050DDB101271D4E29
:1049F000FEF706FF08B146F82470013DF8D1C8F86B
:104A0000005056F82400003818BF0120164B1B68D0
:104A10001BB10190FEF7E8FB019803B0BDE8F083FD
:104A20000020F3E70F4E56F82400003818BF01208D
:104A3000ECE71A680A4BD26812681A60D1E700BF27
:104A4000CC9F0020A09F00209C9F00206F1600207C
:104A5000C49F002054A00020341F0020241F0020E9
:104A600040A00020A8A0002068A00020D49F002023
:104A700050A00020024B186800B97047FFF742BFF2
:104A800068A0002010B582B038B1154C2368DBB99E
:104A90000021FEF703FE23688BB94FF05043114A03
:104AA0001B6852F823202AB101210F4A42F8231033
:104AB00002B010BD02B0BDE81040FDF759BBFFF7D2
:104AC00021FF0028E9D0F3E70190FEF783FC0021E5
:104AD0000198FEF7E3FD2368002BDED0EFE700BF6F
:104AE00068A00020A49F0020A8A00020F8B5D0E96D
:104AF0000125002741F00041C46803690160956009
:104B0000816804F108054A605A6882421A6808BF41
:104B10005960013AD4E9031607611A60A3698E60EF
:104B2000226951605968A94208BF5A601A6813493E
:104B3000013A1A600A68236B934288BF0B601049E0
:104B400003EB8303980001EB83035A689668E260E5
:104B500026619668756095600A58A36101320A5013
:104B6000FFF7A0FB2046FEF7D9FA064B1B681BB1E6
:104B7000BDE8F840FEF738BBF8BD00BFD49F002069
:104B8000341F002068A000202DE9F84F04464FF0A4
:104B9000504A234D0E46234FFFF784FBD5F8009073
:104BA000D4F80480FDF7B8FCDAF8003057F823B0E9
:104BB000FDF7BEFC9BF8790028BB33685A1C0BD06C
:104BC000194A2168106881420FD0616849450CD8A4
:104BD00000230125336000E00546144B1B680BB130
:104BE000FEF702FB2846BDE8F88FA9EB08018B42CF
:104BF000EED91168A3EB09032A684344336000250A
:104C0000C4E90012E9E7FDF787FCDAF80030012576
:104C100057F82340FDF78CFC002384F87930DCE75B
:104C20009CA00020181F002044A0002068A00020A5
:104C30001F4B186800B9704770B5FDF76DFC4FF059
:104C400050421C4C136854F8231029B154F8232007
:104C5000013244F8232070BD1749D1E8CF5F012607
:104C6000002D01D1C1E8456FBFF35F8F4DB9134DE2
:104C7000012213490A7005F813204FF050431B68B6
:104C8000E4E70E4D15F813605EB9D1E8CF6F01224D
:104C9000002EFAD1C1E8462F002EF6D1BFF35F8F68
:104CA000E6E707490B780133DBB20B701368CDE7F9
:104CB00068A00020A49F00206E1600209C9F00206A
:104CC000A09F00201E4B1B68002B34D04FF050419A
:104CD0001C4B0A6853F8220000282CD053F82200FD
:104CE000013843F822000A6853F822301BBB10B584
:104CF0001549164B53F822400B78013BDBB20B7081
:104D00002BB9134800F81230124AC2E88F3F4FF017
:104D100050424B781068013BDBB24B7033B90C4A00
:104D20000D4902EB40025370C1E88F3F0020FDF7B0
:104D3000FFFB0CB910BD7047BDE81040FDF718BA75
:104D400068A00020A49F0020A09F0020A8A0002011
:104D50009C9F00206E1600206F160020134B1B68CE
:104D600003B970474FF05041114B0A6810B453F823
:104D70002240C4B153F82240013C43F822400A6863
:104D800053F822307BB90B490B78013BDBB20B7037
:104D90002BB9094C094904F81230C1E88F3F5DF87E
:104DA000044BFDF7C5BB5DF8044B704768A00020BD
:104DB000A49F0020A09F00209C9F00206E16002032
:104DC000F8B54FF05046FDF7A7FB0D4D336855F889
:104DD0002340FDF7ADFBE769FDF79EFB336855F80F
:104DE0002340FDF7A5FB246BFDF796FB3368C4F168
:104DF000040455F82350FDF79BFB3846EC61F8BDE1
:104E0000181F002010B5FDF787FB4FF05042064BEE
:104E1000126853F82240FDF78BFB14B1E36D0133A8
:104E2000E365204610BD00BF181F00202DE9F04F9C
:104E3000A44EDFF89C82A44D87B033681C68002C18
:104E400000F0D780DB681C68FEF7C6FCFEF7CCFCE0
:104E50009E4B82461B68834245D89C4B8442186017
:104E600040F2388100222868A4EB0A01FEF71EF9FF
:104E7000FFF700FE002800F017810023CDE9023380
:104E8000CDE904330022286802A9FDF755FF002868
:104E9000D3D0029B002BC0F2A380DDF810A0DAF87B
:104EA00014301BB10AF10400FDF7B6FCFEF79CFCC0
:104EB000864B01901B689842C0F0BA80029B834ADF
:104EC0000199013B1160082BDCD8DFE803F038388A
:104ED000785C7F3838785C0023F0010384F8283050
:104EE0002046236A984733681A68002A00F09580A4
:104EF000DB68DC681F6804F1040B5846FDF78CFC86
:104F000094F828305807E7D5FA43A369246107EBE2
:104F100003099342C4F804900BD84F46FF43236A19
:104F200020469847A36924619944BB42C4F8049081
:104F3000F3D95946D8F80000FDF756FCD0E79AF8A7
:104F400028400398DAF81810019A431844F0010732
:104F50008AF828702CBF012700279342CAF8043032
:104F6000CAF810A000F2A380101A814220D8670767
:104F700000F1EC8024F001048AF828405046DAF869
:104F8000203098477EE70399019A9AF828308818CC
:104F900043F0010390428AF82830CAF81810CAF882
:104FA0000400CAF810A000F2878000293FF46AAF1D
:104FB000D8F800000AF10401FDF716FC62E79AF840
:104FC000283023F001038AF828305BE79AF828306C
:104FD0009A0740F1B18023F001038AF8283051E7A5
:104FE000039BDDE904019847029B002BFFF64AAFC3
:104FF00053E7FEF7F1FBFEF7F7FB344B82461B68E5
:105000009842FFF470AF314AD8F80030C2F800A0DF
:105010001A68B2FA82F2520925E7D8F800202B4923
:105020003260C1F800A0C8F80030FFF723FD24E784
:105030003368196851B931E023F0010384F828304E
:10504000236A2046984733681A683AB3DB68DC68FD
:10505000D3F8009004F1040B5846FDF7DDFB94F8FB
:1050600028305A07E8D5A369246109EB03076FEAE2
:1050700009094B4567600BD8B9466FEA0909236AED
:1050800020469847A36924611F444B456760F3D9C4
:105090005946D8F80000FDF7A7FBD1E7D8F8001073
:1050A000C8F80030316009E7FFF7EAF8E5E690421A
:1050B00002D9002F3FF45BAF30680AF10401FDF71D
:1050C00093FBDFE6201F0020A0A0002038A00020D6
:1050D000301F0020FFF7CEFC3368DB68DF6807F184
:1050E000040B5846FDF798FB97F8283059070DD464
:1050F00023F0010387F8283038463B6A9847BCE61E
:1051000093421DD838463B6A98474C46BB69AAEB88
:10511000040214EB03092CBF01210021D145C7F87B
:1051200004903F61ECD9544501D90029EAD0594691
:105130003068FDF759FBDFE75046FCF7F5FEA1E6C6
:105140005946D8F80000FDF74FFBD5E75446DDF887
:10515000049006E0914218D8236A204698473B46BF
:10516000A169CF182CBF01200020B945A9EB03028B
:1051700067602461EED2994501D20028ECD03068F6
:10518000211DA246FDF730FBF8E6D8F80000211DEE
:10519000A246FDF729FBF1E6F0B5194C85B0FFF703
:1051A00081F825689DB1FFF78DFD206868B14FF04B
:1051B000FF3503241349002302914FF48062CDE9A7
:1051C000004511491148FFF739FA05B0F0BD104FFD
:1051D000104E3846FDF7E8FA3046FDF7E5FA0E4B7B
:1051E0002A461F600D4B10210A201E60FDF746FC69
:1051F00020600028D7D00A49FDF7C8FED3E700BFDA
:10520000A0A00020A4A00020D89F00102D4E0010C8
:10521000D89F0020EC9F0020201F0020301F00207E
:10522000D09F00109C46F0B507460E4615466FF01D
:105230000104074B85B06946624618680023CDE932
:10524000017603950094FDF721FD05B0F0BD00BF88
:10525000A0A00020F8B504460D46EFF3108772B603
:105260000C4B9B6853F82060B14205D00A4B9E421C
:105270000CD30A4B9E4209D2064B9B6843F824503C
:10528000BFF35F8F87F310883046F8BD00F0F6F863
:10529000F2E700BF00ED00E0100100102401001053
:1052A00003BD00BF10B5044600F0FEF82346BDE87C
:1052B00010401847F0B5054687B0192017460E462E
:1052C000FBF7F2FB002104461920FBF7D7FB002176
:1052D000CDE9046503970026002701224FF05043D3
:1052E0008C46CDE900670292B9B11A6D9507FCD5DD
:1052F000596540BF1A6DD00703D420BF1A6DD2077D
:10530000FBD59A6D8A420DD04FF0000C06AA02EB35
:105310008C0252F8181CE7E79A6D1A6DD607FBD479
:1053200040BFE2E70CF1010CBCF1050FEED92146BC
:10533000192007B0BDE8F040FBF7A0BB0B4B0C4AAF
:1053400010B49A4288BF4FF0FF330A4C0A4A03F266
:10535000F4719268C3F8F407C3F8FC4707485DF896
:10536000044BC3F8F837FFF7A5BF00BF00080820BB
:1053700000000820A552001000ED00E0A15200102E
:10538000F8B504463A4E0F46FBF786FAB378327802
:1053900003F0010196F90030DB0F43EA4103234299
:1053A00053D096F90110CB0FC2F3801141EA4301AB
:1053B000214273784CD0C3F38011C2F3401545EA03
:1053C0004101214247D0C3F34011C2F3001545EA21
:1053D0004101214242D0C3F30011C2F3C00545EAA6
:1053E000410121423DD0C3F3C001C2F3800545EA2B
:1053F0004101214215D0C3F38001C2F3400545EAC3
:10540000410121421CD003F0020302F001051D43BB
:10541000254018D047BB6FF00805FBF74FFA284628
:10542000F8BD02250423E10744BF1A433270A207E6
:10543000F3D5727813437370FBF740FA2846F8BD32
:1054400001250223EFE70123EDE707258023EAE7A3
:1054500006254023E7E705252023E4E7042510235C
:10546000E1E703250823DEE70248FBF7FDF900BF6B
:10547000D41A0020E09F0010704700BF08B5014813
:10548000FBF7F2F9F49F001038B5054C054DAC421E
:1054900004D254F8043B9847AC42FAD338BD00BF5D
:1054A000F09C0010309D001038B5054C054DAC4205
:1054B00004D254F8043B9847AC42FAD338BD00BF3D
:1054C0001C9D0010309D001010B40748074C084B7D
:1054D000084A094904601A608B6832EA0303FBD169
:1054E0005DF8044B704700BF002002407F3BEFEFA8
:1054F00000300240F6FFF30300000240044BDB6C77
:10550000B3F5004F03D14FF48022024BDA647047A9
:1055100000001150002011504FF0E022044BD2F84F
:10552000881D0B43C2F8883D10EE3004704700BF61
:10553000030330006FF06041044B054A1960936823
:10554000DB4333F06043FAD1704700BF00300240C4
:105550000000024010B545F25320FCF795FBBDE872
:10556000104003460420184710B545F25320FCF7BD
:105570008BFBBDE81040034601201847FBF752BAE9
:1055800070B52E492E4C2F4E641AA510442D2A4674
:1055900028BF44223046920004F052FAB4F5867FC8
:1055A00047D805F1010CBCF1440FC5F14301344467
:1055B000C5F1440088BF012005296346224AC4F38F
:1055C000800418D9BCF1440F15D8ACB346F8252097
:1055D000001B2C4406EB8403410803EBC101C3E923
:1055E000002208339942FAD120F0010398420CEBD3
:1055F00003051ED06B1C442B46F8252019D0422DE4
:1056000046F8232005F1020313D0412D46F823204C
:1056100005F103030DD0402D46F8232005F10403C6
:1056200007D03F2D46F8232005F1050301D046F8A9
:105630002320064B9E6070BDAC46C9E700000010F9
:1056400010010010000000201101001000ED00E02A
:105650000023F0B52B4C83B0C4F88430FCF746FB34
:105660000122294BDA63636C012BFCD10321264A0A
:10567000244B11639D6B012DFCD1052302271E468F
:1056800000242946214A22480097FCF741FA29467E
:105690003346204A20480096FCF73AFA394622461B
:1056A00004201E4BFCF7C6F92946224630461C4B07
:1056B000FCF7C0F92246082021461A4BFCF7BAF93C
:1056C000224609202146174BFCF7B4F92246062052
:1056D0002146134BFCF7AEF9114B22460720214619
:1056E000FCF7A8F90420FCF70DFA0F4DA5FB0035D7
:1056F000AD0CE0B229460134FCF79EFA062CF8D135
:1057000003B0F0BD0000014000300140002F685997
:1057100000000540008C864700800540001BB70054
:1057200080D1F008006CDC0283DE1B4386B003B43A
:1057300051FC0804CDE9020151FC0904CDE9040142
:1057400051EC0A04CDE9060103BCF047BDE8005066
:105750004EEC00C4BDE800504EEC01C4BDE8005062
:105760004EEC02C400BD000000B5FFF7DFFF02E011
:1057700010FE30F4F8D441EC100443EC112400EE98
:10578000010410EE010480EE200451EC1004704777
:1057900000B5FFF7CBFF02E010FE30F4F8D441EC87
:1057A000100443EC112400EE010410EE210480EEFD
:1057B000200451EC3004704700B5FFF7B7FF02E05A
:1057C00010FE30F4F8D410B541EC100443EC112471
:1057D00051EC040453EC0524A0FB024C5FF0000ED6
:1057E000E0FB03CEE1FB02CE4CEC20440024E1FBC5
:1057F00003E444EC30E480EE200451EC5004BDE8B6
:105800001040704700B5FFF791FF02E010FE30F442
:10581000F8D441EC100443EC112451EC2104A0FB1A
:1058200001126FEA820252FB100052FB12F252FB8D
:105830001000A0EBD07C53EC04245CFB13F153EC80
:105840001524A1FB022001FB030053EC4424A2EB2E
:10585000000050FB1CF24FEA111312EB017043EBF6
:10586000E27140EA515020EA915020F0070053ECD9
:105870007524A0FB023C53EC752400FB03CC01FB18
:1058800002CC53EC0424ACEB824C40EA5C70A0F1F7
:10589000010041EC400480EE200451EC700470479C
:1058A00000B5FFF743FF02E010FE30F4F8D440ECFF
:1058B000700400EE010410EE210480EE200451EC8F
:1058C0003004704700B5FFF731FF02E010FE30F4FE
:1058D000F8D440EC600400EE010410EE210480EEE8
:1058E000200451EC3004704700B5FFF71FFF02E0C1
:1058F00010FE30F4F8D441EC800400EE010410EE08
:10590000010480EE400410EE1304704700B5FFF769
:105910000DFF02E010FE30F4F8D441EC800400EEFC
:10592000010410EE010480EE400410EE33047047D1
:1059300000B5FFF7FBFE02E010FE30F4F8D441ECB6
:10594000100443EC112400EE010410EE3004C0F307
:105950000070704700B5FFF7E9FE02E010FE30F47A
:10596000F8D443EC102441EC110400EE010410EED5
:1059700030F48CBF01200020704700BF00B5FFF756
:10598000D5FE02E010FE30F4F8D443EC102441ECD4
:10599000110400EE010410EE30F42CBF01200020B1
:1059A000704700BF00B5FFF7C1FE02E010FE30F403
:1059B000F8D441EC100443EC112400EE010410EE85
:1059C00030F42CBF01200020704700BF00B5FFF766
:1059D000ADFE02E010FE30F4F8D441EC100443ECCC
:1059E000112400EE010410EE30F48CBF01200020E1
:1059F000704700BF704700BF2DE9F84F9A460D9BD6
:105A000017469A0706468B46DDF8288011D1DDE956
:105A10000B3293420DD213463C460B9A9D1A3D44DD
:105A200022465346594620200134B047AC42F7D1B4
:105A300000E03D460B9B73B108EB030404EB050942
:105A4000A9EB040214F8010D53465946B0474445EA
:105A5000F6D10B9B1D440D9B9B070ED50C9BEF1B9A
:105A6000BB420AD91C462A465346594620200137D4
:105A7000B047BC4205F10105F5D82846BDE8F88FCE
:105A80002DE9F04F0F9EDDF824E016F0020F0A9C7E
:105A90009DF82C900E9DDDE90C872CD1002D74D142
:105AA000BC4206F0010B80F0CB801F2C88BF202465
:105AB00000F2C68004F1FF3C4FF0300AF44401E0EC
:105AC000202C04D00134A7420CF801AFF8D8BBF168
:105AD000000F10D0A5420ED9202C2DD004F1FF3C90
